{
  "_format": "hh-sol-artifact-1",
  "contractName": "AnconNFT",
  "sourceName": "contracts/AnconNFT.sol",
  "abi": [
    {
      "inputs": [
        {
          "internalType": "string",
          "name": "name",
          "type": "string"
        },
        {
          "internalType": "string",
          "name": "symbol",
          "type": "string"
        },
        {
          "internalType": "address",
          "name": "tokenERC20",
          "type": "address"
        },
        {
          "internalType": "address",
          "name": "verifierAddr",
          "type": "address"
        }
      ],
      "stateMutability": "nonpayable",
      "type": "constructor"
    },
    {
      "anonymous": false,
      "inputs": [
        {
          "indexed": false,
          "internalType": "address",
          "name": "creator",
          "type": "address"
        },
        {
          "indexed": false,
          "internalType": "string",
          "name": "uri",
          "type": "string"
        },
        {
          "indexed": false,
          "internalType": "uint256",
          "name": "tokenId",
          "type": "uint256"
        },
        {
          "indexed": false,
          "internalType": "uint256",
          "name": "royaltyFee",
          "type": "uint256"
        }
      ],
      "name": "AddMintInfo",
      "type": "event"
    },
    {
      "anonymous": false,
      "inputs": [
        {
          "indexed": true,
          "internalType": "address",
          "name": "owner",
          "type": "address"
        },
        {
          "indexed": true,
          "internalType": "address",
          "name": "approved",
          "type": "address"
        },
        {
          "indexed": true,
          "internalType": "uint256",
          "name": "tokenId",
          "type": "uint256"
        }
      ],
      "name": "Approval",
      "type": "event"
    },
    {
      "anonymous": false,
      "inputs": [
        {
          "indexed": true,
          "internalType": "address",
          "name": "owner",
          "type": "address"
        },
        {
          "indexed": true,
          "internalType": "address",
          "name": "operator",
          "type": "address"
        },
        {
          "indexed": false,
          "internalType": "bool",
          "name": "approved",
          "type": "bool"
        }
      ],
      "name": "ApprovalForAll",
      "type": "event"
    },
    {
      "anonymous": false,
      "inputs": [
        {
          "indexed": true,
          "internalType": "address",
          "name": "previousOwner",
          "type": "address"
        },
        {
          "indexed": true,
          "internalType": "address",
          "name": "newOwner",
          "type": "address"
        }
      ],
      "name": "OwnershipTransferred",
      "type": "event"
    },
    {
      "anonymous": false,
      "inputs": [
        {
          "indexed": false,
          "internalType": "address",
          "name": "account",
          "type": "address"
        }
      ],
      "name": "Paused",
      "type": "event"
    },
    {
      "anonymous": false,
      "inputs": [
        {
          "indexed": true,
          "internalType": "address",
          "name": "from",
          "type": "address"
        },
        {
          "indexed": false,
          "internalType": "uint256",
          "name": "paidToContract",
          "type": "uint256"
        },
        {
          "indexed": false,
          "internalType": "uint256",
          "name": "paidToPaymentAddress",
          "type": "uint256"
        }
      ],
      "name": "ServiceFeePaid",
      "type": "event"
    },
    {
      "anonymous": false,
      "inputs": [
        {
          "indexed": true,
          "internalType": "address",
          "name": "from",
          "type": "address"
        },
        {
          "indexed": true,
          "internalType": "address",
          "name": "to",
          "type": "address"
        },
        {
          "indexed": true,
          "internalType": "uint256",
          "name": "tokenId",
          "type": "uint256"
        }
      ],
      "name": "Transfer",
      "type": "event"
    },
    {
      "anonymous": false,
      "inputs": [
        {
          "indexed": false,
          "internalType": "address",
          "name": "account",
          "type": "address"
        }
      ],
      "name": "Unpaused",
      "type": "event"
    },
    {
      "anonymous": false,
      "inputs": [
        {
          "indexed": true,
          "internalType": "address",
          "name": "paymentAddress",
          "type": "address"
        },
        {
          "indexed": false,
          "internalType": "uint256",
          "name": "amount",
          "type": "uint256"
        }
      ],
      "name": "Withdrawn",
      "type": "event"
    },
    {
      "inputs": [
        {
          "internalType": "address",
          "name": "to",
          "type": "address"
        },
        {
          "internalType": "uint256",
          "name": "tokenId",
          "type": "uint256"
        }
      ],
      "name": "approve",
      "outputs": [],
      "stateMutability": "nonpayable",
      "type": "function"
    },
    {
      "inputs": [
        {
          "internalType": "address",
          "name": "owner",
          "type": "address"
        }
      ],
      "name": "balanceOf",
      "outputs": [
        {
          "internalType": "uint256",
          "name": "",
          "type": "uint256"
        }
      ],
      "stateMutability": "view",
      "type": "function"
    },
    {
      "inputs": [
        {
          "internalType": "uint256",
          "name": "tokenId",
          "type": "uint256"
        }
      ],
      "name": "burn",
      "outputs": [],
      "stateMutability": "nonpayable",
      "type": "function"
    },
    {
      "inputs": [
        {
          "internalType": "uint256",
          "name": "",
          "type": "uint256"
        }
      ],
      "name": "creators",
      "outputs": [
        {
          "internalType": "address",
          "name": "creator",
          "type": "address"
        },
        {
          "internalType": "uint256",
          "name": "royaltyFee",
          "type": "uint256"
        }
      ],
      "stateMutability": "view",
      "type": "function"
    },
    {
      "inputs": [
        {
          "internalType": "uint256",
          "name": "tokenId",
          "type": "uint256"
        }
      ],
      "name": "getApproved",
      "outputs": [
        {
          "internalType": "address",
          "name": "",
          "type": "address"
        }
      ],
      "stateMutability": "view",
      "type": "function"
    },
    {
      "inputs": [
        {
          "internalType": "uint256",
          "name": "id",
          "type": "uint256"
        }
      ],
      "name": "getCreator",
      "outputs": [
        {
          "internalType": "address",
          "name": "",
          "type": "address"
        }
      ],
      "stateMutability": "view",
      "type": "function"
    },
    {
      "inputs": [
        {
          "internalType": "uint256",
          "name": "id",
          "type": "uint256"
        }
      ],
      "name": "getRoyaltyFee",
      "outputs": [
        {
          "internalType": "uint256",
          "name": "",
          "type": "uint256"
        }
      ],
      "stateMutability": "view",
      "type": "function"
    },
    {
      "inputs": [
        {
          "internalType": "address",
          "name": "owner",
          "type": "address"
        },
        {
          "internalType": "address",
          "name": "operator",
          "type": "address"
        }
      ],
      "name": "isApprovedForAll",
      "outputs": [
        {
          "internalType": "bool",
          "name": "",
          "type": "bool"
        }
      ],
      "stateMutability": "view",
      "type": "function"
    },
    {
      "inputs": [
        {
          "internalType": "address",
          "name": "user",
          "type": "address"
        },
        {
          "internalType": "string",
          "name": "uri",
          "type": "string"
        },
        {
          "internalType": "uint256",
          "name": "_royaltyFeePercent",
          "type": "uint256"
        }
      ],
      "name": "mint",
      "outputs": [
        {
          "internalType": "uint256",
          "name": "",
          "type": "uint256"
        }
      ],
      "stateMutability": "nonpayable",
      "type": "function"
    },
    {
      "inputs": [],
      "name": "name",
      "outputs": [
        {
          "internalType": "string",
          "name": "",
          "type": "string"
        }
      ],
      "stateMutability": "view",
      "type": "function"
    },
    {
      "inputs": [],
      "name": "nativeCoin",
      "outputs": [
        {
          "internalType": "contract IERC20",
          "name": "",
          "type": "address"
        }
      ],
      "stateMutability": "view",
      "type": "function"
    },
    {
      "inputs": [
        {
          "internalType": "address",
          "name": "operator",
          "type": "address"
        },
        {
          "internalType": "address",
          "name": "from",
          "type": "address"
        },
        {
          "internalType": "uint256",
          "name": "tokenId",
          "type": "uint256"
        },
        {
          "internalType": "bytes",
          "name": "data",
          "type": "bytes"
        }
      ],
      "name": "onERC721Received",
      "outputs": [
        {
          "internalType": "bytes4",
          "name": "",
          "type": "bytes4"
        }
      ],
      "stateMutability": "nonpayable",
      "type": "function"
    },
    {
      "inputs": [],
      "name": "owner",
      "outputs": [
        {
          "internalType": "address",
          "name": "",
          "type": "address"
        }
      ],
      "stateMutability": "view",
      "type": "function"
    },
    {
      "inputs": [
        {
          "internalType": "uint256",
          "name": "tokenId",
          "type": "uint256"
        }
      ],
      "name": "ownerOf",
      "outputs": [
        {
          "internalType": "address",
          "name": "",
          "type": "address"
        }
      ],
      "stateMutability": "view",
      "type": "function"
    },
    {
      "inputs": [],
      "name": "paused",
      "outputs": [
        {
          "internalType": "bool",
          "name": "",
          "type": "bool"
        }
      ],
      "stateMutability": "view",
      "type": "function"
    },
    {
      "inputs": [],
      "name": "renounceOwnership",
      "outputs": [],
      "stateMutability": "nonpayable",
      "type": "function"
    },
    {
      "inputs": [],
      "name": "royaltyFeePercent",
      "outputs": [
        {
          "internalType": "uint256",
          "name": "",
          "type": "uint256"
        }
      ],
      "stateMutability": "view",
      "type": "function"
    },
    {
      "inputs": [
        {
          "internalType": "address",
          "name": "from",
          "type": "address"
        },
        {
          "internalType": "address",
          "name": "to",
          "type": "address"
        },
        {
          "internalType": "uint256",
          "name": "tokenId",
          "type": "uint256"
        }
      ],
      "name": "safeTransferFrom",
      "outputs": [],
      "stateMutability": "nonpayable",
      "type": "function"
    },
    {
      "inputs": [
        {
          "internalType": "address",
          "name": "from",
          "type": "address"
        },
        {
          "internalType": "address",
          "name": "to",
          "type": "address"
        },
        {
          "internalType": "uint256",
          "name": "tokenId",
          "type": "uint256"
        },
        {
          "internalType": "bytes",
          "name": "_data",
          "type": "bytes"
        }
      ],
      "name": "safeTransferFrom",
      "outputs": [],
      "stateMutability": "nonpayable",
      "type": "function"
    },
    {
      "inputs": [],
      "name": "serviceFeeForContract",
      "outputs": [
        {
          "internalType": "uint256",
          "name": "",
          "type": "uint256"
        }
      ],
      "stateMutability": "view",
      "type": "function"
    },
    {
      "inputs": [],
      "name": "serviceFeeForPaymentAddress",
      "outputs": [
        {
          "internalType": "uint256",
          "name": "",
          "type": "uint256"
        }
      ],
      "stateMutability": "view",
      "type": "function"
    },
    {
      "inputs": [
        {
          "internalType": "address",
          "name": "operator",
          "type": "address"
        },
        {
          "internalType": "bool",
          "name": "approved",
          "type": "bool"
        }
      ],
      "name": "setApprovalForAll",
      "outputs": [],
      "stateMutability": "nonpayable",
      "type": "function"
    },
    {
      "inputs": [
        {
          "internalType": "address",
          "name": "creator",
          "type": "address"
        },
        {
          "internalType": "string",
          "name": "uri",
          "type": "string"
        },
        {
          "internalType": "uint256",
          "name": "tokenId",
          "type": "uint256"
        },
        {
          "internalType": "uint256",
          "name": "royaltyFee",
          "type": "uint256"
        }
      ],
      "name": "setMintInfo",
      "outputs": [],
      "stateMutability": "nonpayable",
      "type": "function"
    },
    {
      "inputs": [
        {
          "internalType": "uint256",
          "name": "_fee",
          "type": "uint256"
        }
      ],
      "name": "setServiceFeeForContract",
      "outputs": [],
      "stateMutability": "nonpayable",
      "type": "function"
    },
    {
      "inputs": [
        {
          "internalType": "uint256",
          "name": "_fee",
          "type": "uint256"
        }
      ],
      "name": "setServiceFeeForPaymentAddress",
      "outputs": [],
      "stateMutability": "nonpayable",
      "type": "function"
    },
    {
      "inputs": [
        {
          "internalType": "bytes4",
          "name": "interfaceId",
          "type": "bytes4"
        }
      ],
      "name": "supportsInterface",
      "outputs": [
        {
          "internalType": "bool",
          "name": "",
          "type": "bool"
        }
      ],
      "stateMutability": "view",
      "type": "function"
    },
    {
      "inputs": [],
      "name": "symbol",
      "outputs": [
        {
          "internalType": "string",
          "name": "",
          "type": "string"
        }
      ],
      "stateMutability": "view",
      "type": "function"
    },
    {
      "inputs": [
        {
          "internalType": "uint256",
          "name": "tokenId",
          "type": "uint256"
        }
      ],
      "name": "tokenURI",
      "outputs": [
        {
          "internalType": "string",
          "name": "",
          "type": "string"
        }
      ],
      "stateMutability": "view",
      "type": "function"
    },
    {
      "inputs": [
        {
          "internalType": "address",
          "name": "from",
          "type": "address"
        },
        {
          "internalType": "address",
          "name": "to",
          "type": "address"
        },
        {
          "internalType": "uint256",
          "name": "tokenId",
          "type": "uint256"
        }
      ],
      "name": "transferFrom",
      "outputs": [],
      "stateMutability": "nonpayable",
      "type": "function"
    },
    {
      "inputs": [
        {
          "internalType": "address",
          "name": "newOwner",
          "type": "address"
        }
      ],
      "name": "transferOwnership",
      "outputs": [],
      "stateMutability": "nonpayable",
      "type": "function"
    },
    {
      "inputs": [],
      "name": "verifierAddress",
      "outputs": [
        {
          "internalType": "address",
          "name": "",
          "type": "address"
        }
      ],
      "stateMutability": "view",
      "type": "function"
    },
    {
      "inputs": [
        {
          "internalType": "address payable",
          "name": "payee",
          "type": "address"
        }
      ],
      "name": "withdrawBalance",
      "outputs": [],
      "stateMutability": "nonpayable",
      "type": "function"
    }
  ],
  "bytecode": "0x60806040526000600c556000600d553480156200001b57600080fd5b5060405162002820380380620028208339810160408190526200003e916200026c565b83518490849062000057906000906020850190620000f2565b5080516200006d906001906020840190620000f2565b50506006805460ff1916905550600880546001600160a01b0319163390811790915560405181906000907f8be0079c531659141344cd1fd0a4f28419497f9722a3daafe3b4186f6b6457e0908290a350600a80546001600160a01b039384166001600160a01b031991821617909155600b8054929093169116179055506200034e9050565b8280546200010090620002fb565b90600052602060002090601f0160209004810192826200012457600085556200016f565b82601f106200013f57805160ff19168380011785556200016f565b828001600101855582156200016f579182015b828111156200016f57825182559160200191906001019062000152565b506200017d92915062000181565b5090565b5b808211156200017d576000815560010162000182565b80516001600160a01b0381168114620001b057600080fd5b919050565b600082601f830112620001c757600080fd5b81516001600160401b0380821115620001e457620001e462000338565b604051601f8301601f19908116603f011681019082821181831017156200020f576200020f62000338565b816040528381526020925086838588010111156200022c57600080fd5b600091505b8382101562000250578582018301518183018401529082019062000231565b83821115620002625760008385830101525b9695505050505050565b600080600080608085870312156200028357600080fd5b84516001600160401b03808211156200029b57600080fd5b620002a988838901620001b5565b95506020870151915080821115620002c057600080fd5b50620002cf87828801620001b5565b935050620002e06040860162000198565b9150620002f06060860162000198565b905092959194509250565b600181811c908216806200031057607f821691505b602082108114156200033257634e487b7160e01b600052602260045260246000fd5b50919050565b634e487b7160e01b600052604160045260246000fd5b6124c2806200035e6000396000f3fe608060405234801561001057600080fd5b50600436106101805760003560e01c806301ffc9a71461018557806306fdde03146101ad578063081812fc146101c2578063095ea7b3146101e2578063150b7a02146101f7578063167b78cd1461022357806318bdffbb1461023657806323b872dd146102495780632c078e8d1461025c57806342842e0e1461026f57806342966c68146102825780635c975abb146102955780636352211e146102a057806370a08231146102b3578063715018a6146102d4578063756af45f146102dc5780638da5cb5b146102ef57806395d89b41146102f75780639e4c0141146102ff578063a22cb46514610322578063a6c517ac14610335578063b86be2ca14610348578063b88d4fde1461035b578063ba7aef431461036e578063c014b9da14610381578063c87b56dd1461038a578063cd53d08e1461039d578063d48e638a146103de578063dca615ed14610407578063e53ae10214610410578063e985e9c514610419578063f2fde38b1461042c575b600080fd5b61019861019336600461204b565b61043f565b60405190151581526020015b60405180910390f35b6101b5610491565b6040516101a491906121f7565b6101d56101d03660046120c9565b610523565b6040516101a49190612156565b6101f56101f0366004612002565b6105b0565b005b61020a610205366004611e00565b6106c1565b6040516001600160e01b031990911681526020016101a4565b600a546101d5906001600160a01b031681565b600b546101d5906001600160a01b031681565b6101f5610257366004611dbf565b6107ef565b6101f561026a3660046120c9565b610821565b6101f561027d366004611dbf565b610855565b6101f56102903660046120c9565b610870565b60065460ff16610198565b6101d56102ae3660046120c9565b6108ea565b6102c66102c1366004611d69565b610961565b6040519081526020016101a4565b6101f56109e8565b6101f56102ea366004611d69565b610a4f565b6101d5610c0e565b6101b5610c1d565b6102c661030d3660046120c9565b6000908152600f602052604090206001015490565b6101f5610330366004611f1d565b610c2c565b6101f5610343366004611fa3565b610ced565b6101f56103563660046120c9565b610d30565b6101f5610369366004611e9e565b610d64565b6102c661037c366004611f4b565b610d9c565b6102c6600c5481565b6101b56103983660046120c9565b610e81565b6103d06103ab3660046120c9565b600f60205260009081526040902080546001909101546001600160a01b039091169082565b6040516101a492919061216a565b6101d56103ec3660046120c9565b6000908152600f60205260409020546001600160a01b031690565b6102c6600e5481565b6102c6600d5481565b610198610427366004611d86565b610e8c565b6101f561043a366004611d69565b610eba565b60006001600160e01b031982166380ac58cd60e01b148061047057506001600160e01b03198216635b5e139f60e01b145b8061048b57506301ffc9a760e01b6001600160e01b03198316145b92915050565b6060600080546104a090612351565b80601f01602080910402602001604051908101604052809291908181526020018280546104cc90612351565b80156105195780601f106104ee57610100808354040283529160200191610519565b820191906000526020600020905b8154815290600101906020018083116104fc57829003601f168201915b5050505050905090565b600061052e82610f98565b6105945760405162461bcd60e51b815260206004820152602c60248201527f4552433732313a20617070726f76656420717565727920666f72206e6f6e657860448201526b34b9ba32b73a103a37b5b2b760a11b60648201526084015b60405180910390fd5b506000908152600460205260409020546001600160a01b031690565b60006105bb826108ea565b9050806001600160a01b0316836001600160a01b031614156106295760405162461bcd60e51b815260206004820152602160248201527f4552433732313a20617070726f76616c20746f2063757272656e74206f776e656044820152603960f91b606482015260840161058b565b336001600160a01b038216148061064557506106458133610e8c565b6106b25760405162461bcd60e51b815260206004820152603860248201527f4552433732313a20617070726f76652063616c6c6572206973206e6f74206f776044820152771b995c881b9bdc88185c1c1c9bdd995908199bdc88185b1b60421b606482015260840161058b565b6106bc8383610fb5565b505050565b600b546000906001600160a01b038781169116146107145760405162461bcd60e51b815260206004820152601060248201526f24b73b30b634b2103b32b934b334b2b960811b604482015260640161058b565b600061071f856108ea565b9050856001600160a01b0316816001600160a01b03161461077b5760405162461bcd60e51b815260206004820152601660248201527524b73b30b634b2103a37b5b2b71034b21037bbb732b960511b604482015260640161058b565b60008061078a85870187612085565b9150915081516000146107d05760405162461bcd60e51b815260206004820152600e60248201526d456d707479206d6574616461746160901b604482015260640161058b565b6107da8183611023565b50630a85bd0160e11b98975050505050505050565b6107fa335b826110ae565b6108165760405162461bcd60e51b815260040161058b90612291565b6106bc838383611178565b3361082a610c0e565b6001600160a01b0316146108505760405162461bcd60e51b815260040161058b9061225c565b600d55565b6106bc83838360405180602001604052806000815250610d64565b610879336107f4565b6108de5760405162461bcd60e51b815260206004820152603060248201527f4552433732314275726e61626c653a2063616c6c6572206973206e6f74206f7760448201526f1b995c881b9bdc88185c1c1c9bdd995960821b606482015260840161058b565b6108e781611311565b50565b6000818152600260205260408120546001600160a01b03168061048b5760405162461bcd60e51b815260206004820152602960248201527f4552433732313a206f776e657220717565727920666f72206e6f6e657869737460448201526832b73a103a37b5b2b760b91b606482015260840161058b565b60006001600160a01b0382166109cc5760405162461bcd60e51b815260206004820152602a60248201527f4552433732313a2062616c616e636520717565727920666f7220746865207a65604482015269726f206164647265737360b01b606482015260840161058b565b506001600160a01b031660009081526003602052604090205490565b336109f1610c0e565b6001600160a01b031614610a175760405162461bcd60e51b815260040161058b9061225c565b6008546040516000916001600160a01b03169060008051602061244d833981519152908390a3600880546001600160a01b0319169055565b33610a58610c0e565b6001600160a01b031614610a7e5760405162461bcd60e51b815260040161058b9061225c565b600a546040516370a0823160e01b81526000916001600160a01b0316906370a0823190610aaf903090600401612156565b60206040518083038186803b158015610ac757600080fd5b505afa158015610adb573d6000803e3d6000fd5b505050506040513d601f19601f82011682018060405250810190610aff91906120e2565b600a5460405163a9059cbb60e01b81529192506001600160a01b03169063a9059cbb90610b32908590859060040161216a565b602060405180830381600087803b158015610b4c57600080fd5b505af1158015610b60573d6000803e3d6000fd5b505050506040513d601f19601f82011682018060405250810190610b84919061202e565b610bc75760405162461bcd60e51b81526020600482015260146024820152731611158e88151c985b9cd9995c8819985a5b195960621b604482015260640161058b565b816001600160a01b03167f7084f5476618d8e60b11ef0d7d3f06914655adb8793e28ff7f018d4c76d505d582604051610c0291815260200190565b60405180910390a25050565b6008546001600160a01b031690565b6060600180546104a090612351565b6001600160a01b038216331415610c815760405162461bcd60e51b815260206004820152601960248201527822a9219b99189d1030b8383937bb32903a379031b0b63632b960391b604482015260640161058b565b3360008181526005602090815260408083206001600160a01b03871680855290835292819020805460ff191686151590811790915590519081529192917f17307eab39ab6107e8899845ad3d59bd9653f200f220920489ca2b5937696c31910160405180910390a35050565b7f0a59a585b9550719952b099b96c48342a827bee7469998fdbdfb68477e41293184848484604051610d2294939291906121c0565b60405180910390a150505050565b33610d39610c0e565b6001600160a01b031614610d5f5760405162461bcd60e51b815260040161058b9061225c565b600c55565b610d6e33836110ae565b610d8a5760405162461bcd60e51b815260040161058b90612291565b610d968484848461131a565b50505050565b6000612710821115610df05760405162461bcd60e51b815260206004820152601d60248201527f696e7075742076616c7565206973206d6f7265207468616e2031303025000000604482015260640161058b565b610dfe600980546001019055565b600e8290556000610e0e60095490565b9050610e1a858261134d565b610e248185611023565b610e3085858386610ced565b6040805180820182526001600160a01b03808816825260208083018781526000868152600f9092529390209151825491166001600160a01b0319909116178155905160019091015590509392505050565b606061048b8261136b565b6001600160a01b03918216600090815260056020908152604080832093909416825291909152205460ff1690565b33610ec3610c0e565b6001600160a01b031614610ee95760405162461bcd60e51b815260040161058b9061225c565b6001600160a01b038116610f4e5760405162461bcd60e51b815260206004820152602660248201527f4f776e61626c653a206e6577206f776e657220697320746865207a65726f206160448201526564647265737360d01b606482015260840161058b565b6008546040516001600160a01b0380841692169060008051602061244d83398151915290600090a3600880546001600160a01b0319166001600160a01b0392909216919091179055565b6000908152600260205260409020546001600160a01b0316151590565b600081815260046020526040902080546001600160a01b0319166001600160a01b0384169081179091558190610fea826108ea565b6001600160a01b03167f8c5be1e5ebec7d5bd14f71427d1e84f3dd0314c0f7b2291e5b200ac8c7c3b92560405160405180910390a45050565b61102c82610f98565b61108f5760405162461bcd60e51b815260206004820152602e60248201527f45524337323155524953746f726167653a2055524920736574206f66206e6f6e60448201526d32bc34b9ba32b73a103a37b5b2b760911b606482015260840161058b565b600082815260076020908152604090912082516106bc92840190611c05565b60006110b982610f98565b61111a5760405162461bcd60e51b815260206004820152602c60248201527f4552433732313a206f70657261746f7220717565727920666f72206e6f6e657860448201526b34b9ba32b73a103a37b5b2b760a11b606482015260840161058b565b6000611125836108ea565b9050806001600160a01b0316846001600160a01b031614806111605750836001600160a01b031661115584610523565b6001600160a01b0316145b8061117057506111708185610e8c565b949350505050565b826001600160a01b031661118b826108ea565b6001600160a01b0316146111f35760405162461bcd60e51b815260206004820152602960248201527f4552433732313a207472616e73666572206f6620746f6b656e2074686174206960448201526839903737ba1037bbb760b91b606482015260840161058b565b6001600160a01b0382166112555760405162461bcd60e51b8152602060048201526024808201527f4552433732313a207472616e7366657220746f20746865207a65726f206164646044820152637265737360e01b606482015260840161058b565b6112608383836114da565b61126b600082610fb5565b6001600160a01b038316600090815260036020526040812080546001929061129490849061230e565b90915550506001600160a01b03821660009081526003602052604081208054600192906112c29084906122e2565b909155505060008181526002602052604080822080546001600160a01b0319166001600160a01b03868116918217909255915184939187169160008051602061246d83398151915291a4505050565b6108e78161154f565b611325848484611178565b6113318484848461158f565b610d965760405162461bcd60e51b815260040161058b9061220a565b61136782826040518060200160405280600081525061169c565b5050565b606061137682610f98565b6113dc5760405162461bcd60e51b815260206004820152603160248201527f45524337323155524953746f726167653a2055524920717565727920666f72206044820152703737b732bc34b9ba32b73a103a37b5b2b760791b606482015260840161058b565b600082815260076020526040812080546113f590612351565b80601f016020809104026020016040519081016040528092919081815260200182805461142190612351565b801561146e5780601f106114435761010080835404028352916020019161146e565b820191906000526020600020905b81548152906001019060200180831161145157829003601f168201915b50505050509050600061148c60408051602081019091526000815290565b905080516000141561149f575092915050565b8151156114d15780826040516020016114b9929190612127565b60405160208183030381529060405292505050919050565b611170846116cf565b60065460ff161561152d5760405162461bcd60e51b815260206004820152601e60248201527f5844563a20546f6b656e20657865637574696f6e206973207061757365640000604482015260640161058b565b6001600160a01b03831661154457611544336117a7565b6106bc8383836118e0565b61155881611947565b6000818152600760205260409020805461157190612351565b1590506108e75760008181526007602052604081206108e791611c89565b60006001600160a01b0384163b1561169157604051630a85bd0160e11b81526001600160a01b0385169063150b7a02906115d3903390899088908890600401612183565b602060405180830381600087803b1580156115ed57600080fd5b505af192505050801561161d575060408051601f3d908101601f1916820190925261161a91810190612068565b60015b611677573d80801561164b576040519150601f19603f3d011682016040523d82523d6000602084013e611650565b606091505b50805161166f5760405162461bcd60e51b815260040161058b9061220a565b805181602001fd5b6001600160e01b031916630a85bd0160e11b149050611170565b506001949350505050565b6116a683836119dc565b6116b3600084848461158f565b6106bc5760405162461bcd60e51b815260040161058b9061220a565b60606116da82610f98565b61173e5760405162461bcd60e51b815260206004820152602f60248201527f4552433732314d657461646174613a2055524920717565727920666f72206e6f60448201526e3732bc34b9ba32b73a103a37b5b2b760891b606482015260840161058b565b600061175560408051602081019091526000815290565b9050600081511161177557604051806020016040528060008152506117a0565b8061177f84611b08565b604051602001611790929190612127565b6040516020818303038152906040525b9392505050565b600a54600d546040516323b872dd60e01b81526001600160a01b03848116600483015230602483015260448201929092529116906323b872dd90606401602060405180830381600087803b1580156117fe57600080fd5b505af1158015611812573d6000803e3d6000fd5b505050506040513d601f19601f82011682018060405250810190611836919061202e565b61188d5760405162461bcd60e51b815260206004820152602260248201527f5844563a205472616e73666572206661696c656420666f7220726563697069656044820152611b9d60f21b606482015260840161058b565b806001600160a01b03167fff781da90c6b849a72bafc99aedde3dff0b039f697f31c21e96d587accee2760600d54600c546040516118d5929190918252602082015260400190565b60405180910390a250565b60065460ff16156106bc5760405162461bcd60e51b815260206004820152602b60248201527f4552433732315061757361626c653a20746f6b656e207472616e73666572207760448201526a1a1a5b19481c185d5cd95960aa1b606482015260840161058b565b6000611952826108ea565b9050611960816000846114da565b61196b600083610fb5565b6001600160a01b038116600090815260036020526040812080546001929061199490849061230e565b909155505060008281526002602052604080822080546001600160a01b0319169055518391906001600160a01b0384169060008051602061246d833981519152908390a45050565b6001600160a01b038216611a325760405162461bcd60e51b815260206004820181905260248201527f4552433732313a206d696e7420746f20746865207a65726f2061646472657373604482015260640161058b565b611a3b81610f98565b15611a875760405162461bcd60e51b815260206004820152601c60248201527b115490cdcc8c4e881d1bdad95b88185b1c9958591e481b5a5b9d195960221b604482015260640161058b565b611a93600083836114da565b6001600160a01b0382166000908152600360205260408120805460019290611abc9084906122e2565b909155505060008181526002602052604080822080546001600160a01b0319166001600160a01b038616908117909155905183929060008051602061246d833981519152908290a45050565b606081611b2c5750506040805180820190915260018152600360fc1b602082015290565b8160005b8115611b565780611b408161238c565b9150611b4f9050600a836122fa565b9150611b30565b6000816001600160401b03811115611b7057611b706123fd565b6040519080825280601f01601f191660200182016040528015611b9a576020820181803683370190505b5090505b841561117057611baf60018361230e565b9150611bbc600a866123a7565b611bc79060306122e2565b60f81b818381518110611bdc57611bdc6123e7565b60200101906001600160f81b031916908160001a905350611bfe600a866122fa565b9450611b9e565b828054611c1190612351565b90600052602060002090601f016020900481019282611c335760008555611c79565b82601f10611c4c57805160ff1916838001178555611c79565b82800160010185558215611c79579182015b82811115611c79578251825591602001919060010190611c5e565b50611c85929150611cbf565b5090565b508054611c9590612351565b6000825580601f10611ca5575050565b601f0160209004906000526020600020908101906108e791905b5b80821115611c855760008155600101611cc0565b60006001600160401b0380841115611cee57611cee6123fd565b604051601f8501601f19908116603f01168101908282118183101715611d1657611d166123fd565b81604052809350858152868686011115611d2f57600080fd5b858560208301376000602087830101525050509392505050565b600082601f830112611d5a57600080fd5b6117a083833560208501611cd4565b600060208284031215611d7b57600080fd5b81356117a081612413565b60008060408385031215611d9957600080fd5b8235611da481612413565b91506020830135611db481612413565b809150509250929050565b600080600060608486031215611dd457600080fd5b8335611ddf81612413565b92506020840135611def81612413565b929592945050506040919091013590565b600080600080600060808688031215611e1857600080fd5b8535611e2381612413565b94506020860135611e3381612413565b93506040860135925060608601356001600160401b0380821115611e5657600080fd5b818801915088601f830112611e6a57600080fd5b813581811115611e7957600080fd5b896020828501011115611e8b57600080fd5b9699959850939650602001949392505050565b60008060008060808587031215611eb457600080fd5b8435611ebf81612413565b93506020850135611ecf81612413565b92506040850135915060608501356001600160401b03811115611ef157600080fd5b8501601f81018713611f0257600080fd5b611f1187823560208401611cd4565b91505092959194509250565b60008060408385031215611f3057600080fd5b8235611f3b81612413565b91506020830135611db481612428565b600080600060608486031215611f6057600080fd5b8335611f6b81612413565b925060208401356001600160401b03811115611f8657600080fd5b611f9286828701611d49565b925050604084013590509250925092565b60008060008060808587031215611fb957600080fd5b8435611fc481612413565b935060208501356001600160401b03811115611fdf57600080fd5b611feb87828801611d49565b949794965050505060408301359260600135919050565b6000806040838503121561201557600080fd5b823561202081612413565b946020939093013593505050565b60006020828403121561204057600080fd5b81516117a081612428565b60006020828403121561205d57600080fd5b81356117a081612436565b60006020828403121561207a57600080fd5b81516117a081612436565b6000806040838503121561209857600080fd5b82356001600160401b038111156120ae57600080fd5b6120ba85828601611d49565b95602094909401359450505050565b6000602082840312156120db57600080fd5b5035919050565b6000602082840312156120f457600080fd5b5051919050565b60008151808452612113816020860160208601612325565b601f01601f19169290920160200192915050565b60008351612139818460208801612325565b83519083019061214d818360208801612325565b01949350505050565b6001600160a01b0391909116815260200190565b6001600160a01b03929092168252602082015260400190565b6001600160a01b03858116825284166020820152604081018390526080606082018190526000906121b6908301846120fb565b9695505050505050565b6001600160a01b03851681526080602082018190526000906121e4908301866120fb565b6040830194909452506060015292915050565b6020815260006117a060208301846120fb565b60208082526032908201527f4552433732313a207472616e7366657220746f206e6f6e20455243373231526560408201527131b2b4bb32b91034b6b83632b6b2b73a32b960711b606082015260800190565b6020808252818101527f4f776e61626c653a2063616c6c6572206973206e6f7420746865206f776e6572604082015260600190565b60208082526031908201527f4552433732313a207472616e736665722063616c6c6572206973206e6f74206f6040820152701ddb995c881b9bdc88185c1c1c9bdd9959607a1b606082015260800190565b600082198211156122f5576122f56123bb565b500190565b600082612309576123096123d1565b500490565b600082821015612320576123206123bb565b500390565b60005b83811015612340578181015183820152602001612328565b83811115610d965750506000910152565b600181811c9082168061236557607f821691505b6020821081141561238657634e487b7160e01b600052602260045260246000fd5b50919050565b60006000198214156123a0576123a06123bb565b5060010190565b6000826123b6576123b66123d1565b500690565b634e487b7160e01b600052601160045260246000fd5b634e487b7160e01b600052601260045260246000fd5b634e487b7160e01b600052603260045260246000fd5b634e487b7160e01b600052604160045260246000fd5b6001600160a01b03811681146108e757600080fd5b80151581146108e757600080fd5b6001600160e01b0319811681146108e757600080fdfe8be0079c531659141344cd1fd0a4f28419497f9722a3daafe3b4186f6b6457e0ddf252ad1be2c89b69c2b068fc378daa952ba7f163c4a11628f55a4df523b3efa2646970667358221220d7f4d63feeacbf0fe7a9bfdace9046fbcaaf5bc61d037cb37e71abd0fc0d8b8b64736f6c63430008070033",
  "linkReferences": {},
  "deployedLinkReferences": {}
}