{
  "_format": "hh-sol-artifact-1",
  "contractName": "ANCON",
  "sourceName": "contracts/ANCON.sol",
  "abi": [
    {
      "inputs": [],
      "stateMutability": "nonpayable",
      "type": "constructor"
    },
    {
      "anonymous": false,
      "inputs": [
        {
          "indexed": true,
          "internalType": "address",
          "name": "owner",
          "type": "address"
        },
        {
          "indexed": true,
          "internalType": "address",
          "name": "spender",
          "type": "address"
        },
        {
          "indexed": false,
          "internalType": "uint256",
          "name": "value",
          "type": "uint256"
        }
      ],
      "name": "Approval",
      "type": "event"
    },
    {
      "anonymous": false,
      "inputs": [
        {
          "indexed": true,
          "internalType": "address",
          "name": "previousOwner",
          "type": "address"
        },
        {
          "indexed": true,
          "internalType": "address",
          "name": "newOwner",
          "type": "address"
        }
      ],
      "name": "OwnershipTransferred",
      "type": "event"
    },
    {
      "anonymous": false,
      "inputs": [
        {
          "indexed": false,
          "internalType": "address",
          "name": "account",
          "type": "address"
        }
      ],
      "name": "Paused",
      "type": "event"
    },
    {
      "anonymous": false,
      "inputs": [
        {
          "indexed": true,
          "internalType": "bytes32",
          "name": "role",
          "type": "bytes32"
        },
        {
          "indexed": true,
          "internalType": "bytes32",
          "name": "previousAdminRole",
          "type": "bytes32"
        },
        {
          "indexed": true,
          "internalType": "bytes32",
          "name": "newAdminRole",
          "type": "bytes32"
        }
      ],
      "name": "RoleAdminChanged",
      "type": "event"
    },
    {
      "anonymous": false,
      "inputs": [
        {
          "indexed": true,
          "internalType": "bytes32",
          "name": "role",
          "type": "bytes32"
        },
        {
          "indexed": true,
          "internalType": "address",
          "name": "account",
          "type": "address"
        },
        {
          "indexed": true,
          "internalType": "address",
          "name": "sender",
          "type": "address"
        }
      ],
      "name": "RoleGranted",
      "type": "event"
    },
    {
      "anonymous": false,
      "inputs": [
        {
          "indexed": true,
          "internalType": "bytes32",
          "name": "role",
          "type": "bytes32"
        },
        {
          "indexed": true,
          "internalType": "address",
          "name": "account",
          "type": "address"
        },
        {
          "indexed": true,
          "internalType": "address",
          "name": "sender",
          "type": "address"
        }
      ],
      "name": "RoleRevoked",
      "type": "event"
    },
    {
      "anonymous": false,
      "inputs": [
        {
          "indexed": true,
          "internalType": "address",
          "name": "from",
          "type": "address"
        },
        {
          "indexed": true,
          "internalType": "address",
          "name": "to",
          "type": "address"
        },
        {
          "indexed": false,
          "internalType": "uint256",
          "name": "value",
          "type": "uint256"
        }
      ],
      "name": "Transfer",
      "type": "event"
    },
    {
      "anonymous": false,
      "inputs": [
        {
          "indexed": false,
          "internalType": "address",
          "name": "account",
          "type": "address"
        }
      ],
      "name": "Unpaused",
      "type": "event"
    },
    {
      "inputs": [],
      "name": "DEFAULT_ADMIN_ROLE",
      "outputs": [
        {
          "internalType": "bytes32",
          "name": "",
          "type": "bytes32"
        }
      ],
      "stateMutability": "view",
      "type": "function"
    },
    {
      "inputs": [],
      "name": "MINTER_ROLE",
      "outputs": [
        {
          "internalType": "bytes32",
          "name": "",
          "type": "bytes32"
        }
      ],
      "stateMutability": "view",
      "type": "function"
    },
    {
      "inputs": [],
      "name": "PAUSER_ROLE",
      "outputs": [
        {
          "internalType": "bytes32",
          "name": "",
          "type": "bytes32"
        }
      ],
      "stateMutability": "view",
      "type": "function"
    },
    {
      "inputs": [
        {
          "internalType": "address",
          "name": "owner",
          "type": "address"
        },
        {
          "internalType": "address",
          "name": "spender",
          "type": "address"
        }
      ],
      "name": "allowance",
      "outputs": [
        {
          "internalType": "uint256",
          "name": "",
          "type": "uint256"
        }
      ],
      "stateMutability": "view",
      "type": "function"
    },
    {
      "inputs": [
        {
          "internalType": "address",
          "name": "spender",
          "type": "address"
        },
        {
          "internalType": "uint256",
          "name": "amount",
          "type": "uint256"
        }
      ],
      "name": "approve",
      "outputs": [
        {
          "internalType": "bool",
          "name": "",
          "type": "bool"
        }
      ],
      "stateMutability": "nonpayable",
      "type": "function"
    },
    {
      "inputs": [
        {
          "internalType": "address",
          "name": "account",
          "type": "address"
        }
      ],
      "name": "balanceOf",
      "outputs": [
        {
          "internalType": "uint256",
          "name": "",
          "type": "uint256"
        }
      ],
      "stateMutability": "view",
      "type": "function"
    },
    {
      "inputs": [
        {
          "internalType": "uint256",
          "name": "amount",
          "type": "uint256"
        }
      ],
      "name": "burn",
      "outputs": [],
      "stateMutability": "nonpayable",
      "type": "function"
    },
    {
      "inputs": [
        {
          "internalType": "address",
          "name": "account",
          "type": "address"
        },
        {
          "internalType": "uint256",
          "name": "amount",
          "type": "uint256"
        }
      ],
      "name": "burnFrom",
      "outputs": [],
      "stateMutability": "nonpayable",
      "type": "function"
    },
    {
      "inputs": [],
      "name": "decimals",
      "outputs": [
        {
          "internalType": "uint8",
          "name": "",
          "type": "uint8"
        }
      ],
      "stateMutability": "view",
      "type": "function"
    },
    {
      "inputs": [
        {
          "internalType": "address",
          "name": "spender",
          "type": "address"
        },
        {
          "internalType": "uint256",
          "name": "subtractedValue",
          "type": "uint256"
        }
      ],
      "name": "decreaseAllowance",
      "outputs": [
        {
          "internalType": "bool",
          "name": "",
          "type": "bool"
        }
      ],
      "stateMutability": "nonpayable",
      "type": "function"
    },
    {
      "inputs": [
        {
          "internalType": "bytes32",
          "name": "role",
          "type": "bytes32"
        }
      ],
      "name": "getRoleAdmin",
      "outputs": [
        {
          "internalType": "bytes32",
          "name": "",
          "type": "bytes32"
        }
      ],
      "stateMutability": "view",
      "type": "function"
    },
    {
      "inputs": [
        {
          "internalType": "bytes32",
          "name": "role",
          "type": "bytes32"
        },
        {
          "internalType": "uint256",
          "name": "index",
          "type": "uint256"
        }
      ],
      "name": "getRoleMember",
      "outputs": [
        {
          "internalType": "address",
          "name": "",
          "type": "address"
        }
      ],
      "stateMutability": "view",
      "type": "function"
    },
    {
      "inputs": [
        {
          "internalType": "bytes32",
          "name": "role",
          "type": "bytes32"
        }
      ],
      "name": "getRoleMemberCount",
      "outputs": [
        {
          "internalType": "uint256",
          "name": "",
          "type": "uint256"
        }
      ],
      "stateMutability": "view",
      "type": "function"
    },
    {
      "inputs": [
        {
          "internalType": "bytes32",
          "name": "role",
          "type": "bytes32"
        },
        {
          "internalType": "address",
          "name": "account",
          "type": "address"
        }
      ],
      "name": "grantRole",
      "outputs": [],
      "stateMutability": "nonpayable",
      "type": "function"
    },
    {
      "inputs": [
        {
          "internalType": "bytes32",
          "name": "role",
          "type": "bytes32"
        },
        {
          "internalType": "address",
          "name": "account",
          "type": "address"
        }
      ],
      "name": "hasRole",
      "outputs": [
        {
          "internalType": "bool",
          "name": "",
          "type": "bool"
        }
      ],
      "stateMutability": "view",
      "type": "function"
    },
    {
      "inputs": [
        {
          "internalType": "address",
          "name": "spender",
          "type": "address"
        },
        {
          "internalType": "uint256",
          "name": "addedValue",
          "type": "uint256"
        }
      ],
      "name": "increaseAllowance",
      "outputs": [
        {
          "internalType": "bool",
          "name": "",
          "type": "bool"
        }
      ],
      "stateMutability": "nonpayable",
      "type": "function"
    },
    {
      "inputs": [
        {
          "internalType": "address",
          "name": "to",
          "type": "address"
        },
        {
          "internalType": "uint256",
          "name": "amount",
          "type": "uint256"
        }
      ],
      "name": "mint",
      "outputs": [],
      "stateMutability": "nonpayable",
      "type": "function"
    },
    {
      "inputs": [],
      "name": "name",
      "outputs": [
        {
          "internalType": "string",
          "name": "",
          "type": "string"
        }
      ],
      "stateMutability": "view",
      "type": "function"
    },
    {
      "inputs": [],
      "name": "owner",
      "outputs": [
        {
          "internalType": "address",
          "name": "",
          "type": "address"
        }
      ],
      "stateMutability": "view",
      "type": "function"
    },
    {
      "inputs": [],
      "name": "pause",
      "outputs": [],
      "stateMutability": "nonpayable",
      "type": "function"
    },
    {
      "inputs": [],
      "name": "paused",
      "outputs": [
        {
          "internalType": "bool",
          "name": "",
          "type": "bool"
        }
      ],
      "stateMutability": "view",
      "type": "function"
    },
    {
      "inputs": [],
      "name": "renounceOwnership",
      "outputs": [],
      "stateMutability": "nonpayable",
      "type": "function"
    },
    {
      "inputs": [
        {
          "internalType": "bytes32",
          "name": "role",
          "type": "bytes32"
        },
        {
          "internalType": "address",
          "name": "account",
          "type": "address"
        }
      ],
      "name": "renounceRole",
      "outputs": [],
      "stateMutability": "nonpayable",
      "type": "function"
    },
    {
      "inputs": [
        {
          "internalType": "bytes32",
          "name": "role",
          "type": "bytes32"
        },
        {
          "internalType": "address",
          "name": "account",
          "type": "address"
        }
      ],
      "name": "revokeRole",
      "outputs": [],
      "stateMutability": "nonpayable",
      "type": "function"
    },
    {
      "inputs": [
        {
          "internalType": "bytes4",
          "name": "interfaceId",
          "type": "bytes4"
        }
      ],
      "name": "supportsInterface",
      "outputs": [
        {
          "internalType": "bool",
          "name": "",
          "type": "bool"
        }
      ],
      "stateMutability": "view",
      "type": "function"
    },
    {
      "inputs": [],
      "name": "symbol",
      "outputs": [
        {
          "internalType": "string",
          "name": "",
          "type": "string"
        }
      ],
      "stateMutability": "view",
      "type": "function"
    },
    {
      "inputs": [],
      "name": "totalSupply",
      "outputs": [
        {
          "internalType": "uint256",
          "name": "",
          "type": "uint256"
        }
      ],
      "stateMutability": "view",
      "type": "function"
    },
    {
      "inputs": [
        {
          "internalType": "address",
          "name": "recipient",
          "type": "address"
        },
        {
          "internalType": "uint256",
          "name": "amount",
          "type": "uint256"
        }
      ],
      "name": "transfer",
      "outputs": [
        {
          "internalType": "bool",
          "name": "",
          "type": "bool"
        }
      ],
      "stateMutability": "nonpayable",
      "type": "function"
    },
    {
      "inputs": [
        {
          "internalType": "address",
          "name": "sender",
          "type": "address"
        },
        {
          "internalType": "address",
          "name": "recipient",
          "type": "address"
        },
        {
          "internalType": "uint256",
          "name": "amount",
          "type": "uint256"
        }
      ],
      "name": "transferFrom",
      "outputs": [
        {
          "internalType": "bool",
          "name": "",
          "type": "bool"
        }
      ],
      "stateMutability": "nonpayable",
      "type": "function"
    },
    {
      "inputs": [
        {
          "internalType": "address",
          "name": "newOwner",
          "type": "address"
        }
      ],
      "name": "transferOwnership",
      "outputs": [],
      "stateMutability": "nonpayable",
      "type": "function"
    },
    {
      "inputs": [],
      "name": "unpause",
      "outputs": [],
      "stateMutability": "nonpayable",
      "type": "function"
    }
  ],
  "bytecode": "0x60806040523480156200001157600080fd5b506040518060400160405280600b81526020016a20b731b7b7102a37b5b2b760a91b8152506040518060400160405280600581526020016420b731b7b760d91b815250818181600590805190602001906200006e929190620004ee565b50805162000084906006906020840190620004ee565b50506007805460ff19169055506200009f6000335b6200014e565b620000ba60008051602062001f288339815191523362000099565b620000e67f65d7a28e3265b37a6474929f336521b332c1681b933f6cb9f3376673440d862a3362000099565b505060078054610100600160a81b0319163361010081029190911790915560405181906000907f8be0079c531659141344cd1fd0a4f28419497f9722a3daafe3b4186f6b6457e0908290a350620001483369d3c21bcecceda100000062000191565b620005f6565b6200016582826200023460201b62000a901760201c565b60008281526001602090815260409091206200018c91839062000a9a62000240821b17901c565b505050565b620001ac60008051602062001f288339815191523362000260565b620002245760405162461bcd60e51b815260206004820152603660248201527f45524332305072657365744d696e7465725061757365723a206d75737420686160448201527f7665206d696e74657220726f6c6520746f206d696e740000000000000000000060648201526084015b60405180910390fd5b62000230828262000289565b5050565b6200023082826200037c565b600062000257836001600160a01b03841662000404565b90505b92915050565b6000918252602082815260408084206001600160a01b0393909316845291905290205460ff1690565b6001600160a01b038216620002e15760405162461bcd60e51b815260206004820152601f60248201527f45524332303a206d696e7420746f20746865207a65726f20616464726573730060448201526064016200021b565b620002ef6000838362000456565b806004600082825462000303919062000594565b90915550506001600160a01b038216600090815260026020526040812080548392906200033290849062000594565b90915550506040518181526001600160a01b038316906000907fddf252ad1be2c89b69c2b068fc378daa952ba7f163c4a11628f55a4df523b3ef9060200160405180910390a35050565b62000388828262000260565b62000230576000828152602081815260408083206001600160a01b03851684529091529020805460ff19166001179055620003c03390565b6001600160a01b0316816001600160a01b0316837f2f8788117e7eff1d82e926ec794901d17c78024a50270940304540a733656f0d60405160405180910390a45050565b60008181526001830160205260408120546200044d575081546001818101845560008481526020808220909301849055845484825282860190935260409020919091556200025a565b5060006200025a565b6200018c8383836200046e60201b62000aaf1760201c565b620004868383836200018c60201b620005a11760201c565b60075460ff16156200018c5760405162461bcd60e51b815260206004820152602a60248201527f45524332305061757361626c653a20746f6b656e207472616e736665722077686044820152691a5b19481c185d5cd95960b21b60648201526084016200021b565b828054620004fc90620005b9565b90600052602060002090601f0160209004810192826200052057600085556200056b565b82601f106200053b57805160ff19168380011785556200056b565b828001600101855582156200056b579182015b828111156200056b5782518255916020019190600101906200054e565b50620005799291506200057d565b5090565b5b808211156200057957600081556001016200057e565b60008219821115620005b457634e487b7160e01b81526011600452602481fd5b500190565b600181811c90821680620005ce57607f821691505b60208210811415620005f057634e487b7160e01b600052602260045260246000fd5b50919050565b61192280620006066000396000f3fe608060405234801561001057600080fd5b50600436106101755760003560e01c806301ffc9a71461017a57806306fdde03146101a2578063095ea7b3146101b757806318160ddd146101ca57806323b872dd146101dc578063248a9ca3146101ef5780632f2ff15d14610202578063313ce5671461021757806336568abe1461022657806339509351146102395780633f4ba83a1461024c57806340c10f191461025457806342966c68146102675780635c975abb1461027a57806370a0823114610285578063715018a6146102ae57806379cc6790146102b65780638456cb59146102c95780638da5cb5b146102d15780639010d07c146102e657806391d14854146102f957806395d89b411461030c578063a217fddf14610314578063a457c2d71461031c578063a9059cbb1461032f578063ca15c87314610342578063d539139314610355578063d547741f1461036a578063dd62ed3e1461037d578063e63ab1e9146103b6578063f2fde38b146103cb575b600080fd5b61018d6101883660046116e8565b6103de565b60405190151581526020015b60405180910390f35b6101aa61040b565b6040516101999190611724565b61018d6101c5366004611664565b61049d565b6004545b604051908152602001610199565b61018d6101ea366004611629565b6104b4565b6101ce6101fd36600461168d565b61056a565b6102156102103660046116a5565b61057f565b005b60405160128152602001610199565b6102156102343660046116a5565b6105a6565b61018d610247366004611664565b6105c8565b6102156105ff565b610215610262366004611664565b61067d565b61021561027536600461168d565b6106fc565b60075460ff1661018d565b6101ce6102933660046115dd565b6001600160a01b031660009081526002602052604090205490565b610215610709565b6102156102c4366004611664565b610776565b6102156107f9565b6102d9610873565b6040516101999190611710565b6102d96102f43660046116c7565b610887565b61018d6103073660046116a5565b6108a6565b6101aa6108cf565b6101ce600081565b61018d61032a366004611664565b6108de565b61018d61033d366004611664565b610979565b6101ce61035036600461168d565b610986565b6101ce60008051602061188d83398151915281565b6102156103783660046116a5565b61099d565b6101ce61038b3660046115f7565b6001600160a01b03918216600090815260036020908152604080832093909416825291909152205490565b6101ce60008051602061184d83398151915281565b6102156103d93660046115dd565b6109a7565b60006001600160e01b03198216635a05180f60e01b1480610403575061040382610b15565b90505b919050565b60606005805461041a906117db565b80601f0160208091040260200160405190810160405280929190818152602001828054610446906117db565b80156104935780601f1061046857610100808354040283529160200191610493565b820191906000526020600020905b81548152906001019060200180831161047657829003601f168201915b5050505050905090565b60006104aa338484610b4a565b5060015b92915050565b60006104c1848484610c6f565b6001600160a01b03841660009081526003602090815260408083203384529091529020548281101561054b5760405162461bcd60e51b815260206004820152602860248201527f45524332303a207472616e7366657220616d6f756e74206578636565647320616044820152676c6c6f77616e636560c01b60648201526084015b60405180910390fd5b61055f853361055a86856117c4565b610b4a565b506001949350505050565b60009081526020819052604090206001015490565b6105898282610e40565b60008281526001602052604090206105a19082610a9a565b505050565b6105b08282610ea4565b60008281526001602052604090206105a19082610f1e565b3360008181526003602090815260408083206001600160a01b038716845290915281205490916104aa91859061055a9086906117ac565b61061760008051602061184d83398151915233610307565b6106735760405162461bcd60e51b8152602060048201526039602482015260008051602061182d83398151915260448201527876652070617573657220726f6c6520746f20756e706175736560381b6064820152608401610542565b61067b610f33565b565b61069560008051602061188d83398151915233610307565b6106ee5760405162461bcd60e51b8152602060048201526036602482015260008051602061182d8339815191526044820152751d99481b5a5b9d195c881c9bdb19481d1bc81b5a5b9d60521b6064820152608401610542565b6106f88282610fc0565b5050565b6107063382611099565b50565b33610712610873565b6001600160a01b0316146107385760405162461bcd60e51b815260040161054290611777565b60075460405160009161010090046001600160a01b03169060008051602061186d833981519152908390a360078054610100600160a81b0319169055565b6000610782833361038b565b9050818110156107e05760405162461bcd60e51b8152602060048201526024808201527f45524332303a206275726e20616d6f756e74206578636565647320616c6c6f77604482015263616e636560e01b6064820152608401610542565b6107ef833361055a85856117c4565b6105a18383611099565b61081160008051602061184d83398151915233610307565b61086b5760405162461bcd60e51b8152602060048201526037602482015260008051602061182d83398151915260448201527676652070617573657220726f6c6520746f20706175736560481b6064820152608401610542565b61067b6111e2565b60075461010090046001600160a01b031690565b600082815260016020526040812061089f908361125d565b9392505050565b6000918252602082815260408084206001600160a01b0393909316845291905290205460ff1690565b60606006805461041a906117db565b3360009081526003602090815260408083206001600160a01b0386168452909152812054828110156109605760405162461bcd60e51b815260206004820152602560248201527f45524332303a2064656372656173656420616c6c6f77616e63652062656c6f77604482015264207a65726f60d81b6064820152608401610542565b61096f338561055a86856117c4565b5060019392505050565b60006104aa338484610c6f565b600081815260016020526040812061040390611269565b6105b08282611273565b336109b0610873565b6001600160a01b0316146109d65760405162461bcd60e51b815260040161054290611777565b6001600160a01b038116610a3b5760405162461bcd60e51b815260206004820152602660248201527f4f776e61626c653a206e6577206f776e657220697320746865207a65726f206160448201526564647265737360d01b6064820152608401610542565b6007546040516001600160a01b03808416926101009004169060008051602061186d83398151915290600090a3600780546001600160a01b0390921661010002610100600160a81b0319909216919091179055565b6106f882826112d2565b600061089f836001600160a01b038416611356565b60075460ff16156105a15760405162461bcd60e51b815260206004820152602a60248201527f45524332305061757361626c653a20746f6b656e207472616e736665722077686044820152691a5b19481c185d5cd95960b21b6064820152608401610542565b60006001600160e01b03198216637965db0b60e01b148061040357506301ffc9a760e01b6001600160e01b0319831614610403565b6001600160a01b038316610bac5760405162461bcd60e51b8152602060048201526024808201527f45524332303a20617070726f76652066726f6d20746865207a65726f206164646044820152637265737360e01b6064820152608401610542565b6001600160a01b038216610c0d5760405162461bcd60e51b815260206004820152602260248201527f45524332303a20617070726f766520746f20746865207a65726f206164647265604482015261737360f01b6064820152608401610542565b6001600160a01b0383811660008181526003602090815260408083209487168084529482529182902085905590518481527f8c5be1e5ebec7d5bd14f71427d1e84f3dd0314c0f7b2291e5b200ac8c7c3b92591015b60405180910390a3505050565b6001600160a01b038316610cd35760405162461bcd60e51b815260206004820152602560248201527f45524332303a207472616e736665722066726f6d20746865207a65726f206164604482015264647265737360d81b6064820152608401610542565b6001600160a01b038216610d355760405162461bcd60e51b815260206004820152602360248201527f45524332303a207472616e7366657220746f20746865207a65726f206164647260448201526265737360e81b6064820152608401610542565b610d408383836113a5565b6001600160a01b03831660009081526002602052604090205481811015610db85760405162461bcd60e51b815260206004820152602660248201527f45524332303a207472616e7366657220616d6f756e7420657863656564732062604482015265616c616e636560d01b6064820152608401610542565b610dc282826117c4565b6001600160a01b038086166000908152600260205260408082209390935590851681529081208054849290610df89084906117ac565b92505081905550826001600160a01b0316846001600160a01b03166000805160206118ad83398151915284604051610e3291815260200190565b60405180910390a350505050565b610e52610e4c8361056a565b33610307565b610a905760405162461bcd60e51b815260206004820152602f60248201526000805160206118cd83398151915260448201526e0818591b5a5b881d1bc819dc985b9d608a1b6064820152608401610542565b6001600160a01b0381163314610f145760405162461bcd60e51b815260206004820152602f60248201527f416363657373436f6e74726f6c3a2063616e206f6e6c792072656e6f756e636560448201526e103937b632b9903337b91039b2b63360891b6064820152608401610542565b6106f882826113b0565b600061089f836001600160a01b038416611415565b60075460ff16610f7c5760405162461bcd60e51b815260206004820152601460248201527314185d5cd8589b194e881b9bdd081c185d5cd95960621b6044820152606401610542565b6007805460ff191690557f5db9ee0a495bf2e6ff9c91a7834c1ba4fdd244a5e8aa4e537bd38aeae4b073aa335b604051610fb69190611710565b60405180910390a1565b6001600160a01b0382166110165760405162461bcd60e51b815260206004820152601f60248201527f45524332303a206d696e7420746f20746865207a65726f2061646472657373006044820152606401610542565b611022600083836113a5565b806004600082825461103491906117ac565b90915550506001600160a01b038216600090815260026020526040812080548392906110619084906117ac565b90915550506040518181526001600160a01b038316906000906000805160206118ad8339815191529060200160405180910390a35050565b6001600160a01b0382166110f95760405162461bcd60e51b815260206004820152602160248201527f45524332303a206275726e2066726f6d20746865207a65726f206164647265736044820152607360f81b6064820152608401610542565b611105826000836113a5565b6001600160a01b038216600090815260026020526040902054818110156111795760405162461bcd60e51b815260206004820152602260248201527f45524332303a206275726e20616d6f756e7420657863656564732062616c616e604482015261636560f01b6064820152608401610542565b61118382826117c4565b6001600160a01b038416600090815260026020526040812091909155600480548492906111b19084906117c4565b90915550506040518281526000906001600160a01b038516906000805160206118ad83398151915290602001610c62565b60075460ff16156112285760405162461bcd60e51b815260206004820152601060248201526f14185d5cd8589b194e881c185d5cd95960821b6044820152606401610542565b6007805460ff191660011790557f62e78cea01bee320cd4e420270b5ea74000d11b0c9f74754ebdbfc544b05a258610fa93390565b600061089f8383611532565b6000610403825490565b61127f610e4c8361056a565b610f145760405162461bcd60e51b815260206004820152603060248201526000805160206118cd83398151915260448201526f2061646d696e20746f207265766f6b6560801b6064820152608401610542565b6112dc82826108a6565b6106f8576000828152602081815260408083206001600160a01b03851684529091529020805460ff191660011790556113123390565b6001600160a01b0316816001600160a01b0316837f2f8788117e7eff1d82e926ec794901d17c78024a50270940304540a733656f0d60405160405180910390a45050565b600081815260018301602052604081205461139d575081546001818101845560008481526020808220909301849055845484825282860190935260409020919091556104ae565b5060006104ae565b6105a1838383610aaf565b6113ba82826108a6565b156106f8576000828152602081815260408083206001600160a01b0385168085529252808320805460ff1916905551339285917ff6391f5c32d9c69d2a47ea670b442974b53935d1edc7fd64eb21e047a839171b9190a45050565b600081815260018301602052604081205480156115285760006114396001836117c4565b855490915060009061144d906001906117c4565b9050600086600001828154811061147457634e487b7160e01b600052603260045260246000fd5b90600052602060002001549050808760000184815481106114a557634e487b7160e01b600052603260045260246000fd5b6000918252602090912001556114bc8360016117ac565b600082815260018901602052604090205586548790806114ec57634e487b7160e01b600052603160045260246000fd5b600190038181906000526020600020016000905590558660010160008781526020019081526020016000206000905560019450505050506104ae565b60009150506104ae565b815460009082106115905760405162461bcd60e51b815260206004820152602260248201527f456e756d657261626c655365743a20696e646578206f7574206f6620626f756e604482015261647360f01b6064820152608401610542565b8260000182815481106115b357634e487b7160e01b600052603260045260246000fd5b9060005260206000200154905092915050565b80356001600160a01b038116811461040657600080fd5b6000602082840312156115ee578081fd5b61089f826115c6565b60008060408385031215611609578081fd5b611612836115c6565b9150611620602084016115c6565b90509250929050565b60008060006060848603121561163d578081fd5b611646846115c6565b9250611654602085016115c6565b9150604084013590509250925092565b60008060408385031215611676578182fd5b61167f836115c6565b946020939093013593505050565b60006020828403121561169e578081fd5b5035919050565b600080604083850312156116b7578182fd5b82359150611620602084016115c6565b600080604083850312156116d9578182fd5b50508035926020909101359150565b6000602082840312156116f9578081fd5b81356001600160e01b03198116811461089f578182fd5b6001600160a01b0391909116815260200190565b6000602080835283518082850152825b8181101561175057858101830151858201604001528201611734565b818111156117615783604083870101525b50601f01601f1916929092016040019392505050565b6020808252818101527f4f776e61626c653a2063616c6c6572206973206e6f7420746865206f776e6572604082015260600190565b600082198211156117bf576117bf611816565b500190565b6000828210156117d6576117d6611816565b500390565b600181811c908216806117ef57607f821691505b6020821081141561181057634e487b7160e01b600052602260045260246000fd5b50919050565b634e487b7160e01b600052601160045260246000fdfe45524332305072657365744d696e7465725061757365723a206d75737420686165d7a28e3265b37a6474929f336521b332c1681b933f6cb9f3376673440d862a8be0079c531659141344cd1fd0a4f28419497f9722a3daafe3b4186f6b6457e09f2df0fed2c77648de5860a4cc508cd0818c85b8b8a1ab4ceeef8d981c8956a6ddf252ad1be2c89b69c2b068fc378daa952ba7f163c4a11628f55a4df523b3ef416363657373436f6e74726f6c3a2073656e646572206d75737420626520616ea26469706673582212202284e2da9caf348bb7293e7d1ef57b1425ee78e1f55e012871a348d41529843e64736f6c634300080300339f2df0fed2c77648de5860a4cc508cd0818c85b8b8a1ab4ceeef8d981c8956a6",
  "linkReferences": {},
  "deployedLinkReferences": {}
}