{
  "_format": "hh-sol-artifact-1",
  "contractName": "NFTEX",
  "sourceName": "contracts/NFTEX.sol",
  "abi": [
    {
      "inputs": [
        {
          "internalType": "address",
          "name": "tokenERC20",
          "type": "address"
        },
        {
          "internalType": "uint16",
          "name": "_feePercent",
          "type": "uint16"
        }
      ],
      "stateMutability": "nonpayable",
      "type": "constructor"
    },
    {
      "anonymous": false,
      "inputs": [
        {
          "indexed": true,
          "internalType": "contract IERC721",
          "name": "token",
          "type": "address"
        },
        {
          "indexed": false,
          "internalType": "uint256",
          "name": "id",
          "type": "uint256"
        },
        {
          "indexed": true,
          "internalType": "bytes32",
          "name": "hash",
          "type": "bytes32"
        },
        {
          "indexed": false,
          "internalType": "address",
          "name": "bidder",
          "type": "address"
        },
        {
          "indexed": false,
          "internalType": "uint256",
          "name": "bidPrice",
          "type": "uint256"
        }
      ],
      "name": "Bid",
      "type": "event"
    },
    {
      "anonymous": false,
      "inputs": [
        {
          "indexed": true,
          "internalType": "contract IERC721",
          "name": "token",
          "type": "address"
        },
        {
          "indexed": false,
          "internalType": "uint256",
          "name": "id",
          "type": "uint256"
        },
        {
          "indexed": true,
          "internalType": "bytes32",
          "name": "hash",
          "type": "bytes32"
        },
        {
          "indexed": false,
          "internalType": "address",
          "name": "seller",
          "type": "address"
        }
      ],
      "name": "CancelOrder",
      "type": "event"
    },
    {
      "anonymous": false,
      "inputs": [
        {
          "indexed": true,
          "internalType": "contract IERC721",
          "name": "token",
          "type": "address"
        },
        {
          "indexed": false,
          "internalType": "uint256",
          "name": "id",
          "type": "uint256"
        },
        {
          "indexed": true,
          "internalType": "bytes32",
          "name": "hash",
          "type": "bytes32"
        },
        {
          "indexed": false,
          "internalType": "address",
          "name": "seller",
          "type": "address"
        },
        {
          "indexed": false,
          "internalType": "address",
          "name": "taker",
          "type": "address"
        },
        {
          "indexed": false,
          "internalType": "uint256",
          "name": "price",
          "type": "uint256"
        }
      ],
      "name": "Claim",
      "type": "event"
    },
    {
      "anonymous": false,
      "inputs": [
        {
          "indexed": true,
          "internalType": "contract IERC721",
          "name": "token",
          "type": "address"
        },
        {
          "indexed": false,
          "internalType": "uint256",
          "name": "id",
          "type": "uint256"
        },
        {
          "indexed": true,
          "internalType": "bytes32",
          "name": "hash",
          "type": "bytes32"
        },
        {
          "indexed": false,
          "internalType": "address",
          "name": "seller",
          "type": "address"
        }
      ],
      "name": "MakeOrder",
      "type": "event"
    },
    {
      "anonymous": false,
      "inputs": [
        {
          "indexed": true,
          "internalType": "address",
          "name": "previousOwner",
          "type": "address"
        },
        {
          "indexed": true,
          "internalType": "address",
          "name": "newOwner",
          "type": "address"
        }
      ],
      "name": "OwnershipTransferred",
      "type": "event"
    },
    {
      "inputs": [
        {
          "internalType": "bytes32",
          "name": "_order",
          "type": "bytes32"
        }
      ],
      "name": "bid",
      "outputs": [],
      "stateMutability": "payable",
      "type": "function"
    },
    {
      "inputs": [
        {
          "internalType": "bytes32",
          "name": "_order",
          "type": "bytes32"
        }
      ],
      "name": "buyItNow",
      "outputs": [],
      "stateMutability": "payable",
      "type": "function"
    },
    {
      "inputs": [
        {
          "internalType": "bytes32",
          "name": "_order",
          "type": "bytes32"
        }
      ],
      "name": "cancelOrder",
      "outputs": [],
      "stateMutability": "nonpayable",
      "type": "function"
    },
    {
      "inputs": [
        {
          "internalType": "bytes32",
          "name": "_order",
          "type": "bytes32"
        }
      ],
      "name": "claim",
      "outputs": [],
      "stateMutability": "nonpayable",
      "type": "function"
    },
    {
      "inputs": [
        {
          "internalType": "contract IERC721",
          "name": "_token",
          "type": "address"
        },
        {
          "internalType": "uint256",
          "name": "_id",
          "type": "uint256"
        },
        {
          "internalType": "uint256",
          "name": "_startPrice",
          "type": "uint256"
        },
        {
          "internalType": "uint256",
          "name": "_endPrice",
          "type": "uint256"
        },
        {
          "internalType": "uint256",
          "name": "_endBlock",
          "type": "uint256"
        }
      ],
      "name": "dutchAuction",
      "outputs": [],
      "stateMutability": "nonpayable",
      "type": "function"
    },
    {
      "inputs": [
        {
          "internalType": "contract IERC721",
          "name": "_token",
          "type": "address"
        },
        {
          "internalType": "uint256",
          "name": "_id",
          "type": "uint256"
        },
        {
          "internalType": "uint256",
          "name": "_startPrice",
          "type": "uint256"
        },
        {
          "internalType": "uint256",
          "name": "_endBlock",
          "type": "uint256"
        }
      ],
      "name": "englishAuction",
      "outputs": [],
      "stateMutability": "nonpayable",
      "type": "function"
    },
    {
      "inputs": [],
      "name": "feeAddress",
      "outputs": [
        {
          "internalType": "address",
          "name": "",
          "type": "address"
        }
      ],
      "stateMutability": "view",
      "type": "function"
    },
    {
      "inputs": [],
      "name": "feePercent",
      "outputs": [
        {
          "internalType": "uint16",
          "name": "",
          "type": "uint16"
        }
      ],
      "stateMutability": "view",
      "type": "function"
    },
    {
      "inputs": [
        {
          "internalType": "contract IERC721",
          "name": "_token",
          "type": "address"
        },
        {
          "internalType": "uint256",
          "name": "_id",
          "type": "uint256"
        },
        {
          "internalType": "uint256",
          "name": "_price",
          "type": "uint256"
        },
        {
          "internalType": "uint256",
          "name": "_endTimestamp",
          "type": "uint256"
        }
      ],
      "name": "fixedPrice",
      "outputs": [],
      "stateMutability": "nonpayable",
      "type": "function"
    },
    {
      "inputs": [
        {
          "internalType": "bytes32",
          "name": "_order",
          "type": "bytes32"
        }
      ],
      "name": "getCurrentPrice",
      "outputs": [
        {
          "internalType": "uint256",
          "name": "",
          "type": "uint256"
        }
      ],
      "stateMutability": "view",
      "type": "function"
    },
    {
      "inputs": [],
      "name": "nativeCoin",
      "outputs": [
        {
          "internalType": "contract IERC20",
          "name": "",
          "type": "address"
        }
      ],
      "stateMutability": "view",
      "type": "function"
    },
    {
      "inputs": [
        {
          "internalType": "address",
          "name": "",
          "type": "address"
        },
        {
          "internalType": "address",
          "name": "",
          "type": "address"
        },
        {
          "internalType": "uint256",
          "name": "",
          "type": "uint256"
        },
        {
          "internalType": "bytes",
          "name": "",
          "type": "bytes"
        }
      ],
      "name": "onERC721Received",
      "outputs": [
        {
          "internalType": "bytes4",
          "name": "",
          "type": "bytes4"
        }
      ],
      "stateMutability": "nonpayable",
      "type": "function"
    },
    {
      "inputs": [
        {
          "internalType": "address",
          "name": "",
          "type": "address"
        },
        {
          "internalType": "uint256",
          "name": "",
          "type": "uint256"
        }
      ],
      "name": "orderIdBySeller",
      "outputs": [
        {
          "internalType": "bytes32",
          "name": "",
          "type": "bytes32"
        }
      ],
      "stateMutability": "view",
      "type": "function"
    },
    {
      "inputs": [
        {
          "internalType": "contract IERC721",
          "name": "",
          "type": "address"
        },
        {
          "internalType": "uint256",
          "name": "",
          "type": "uint256"
        },
        {
          "internalType": "uint256",
          "name": "",
          "type": "uint256"
        }
      ],
      "name": "orderIdByToken",
      "outputs": [
        {
          "internalType": "bytes32",
          "name": "",
          "type": "bytes32"
        }
      ],
      "stateMutability": "view",
      "type": "function"
    },
    {
      "inputs": [
        {
          "internalType": "bytes32",
          "name": "",
          "type": "bytes32"
        }
      ],
      "name": "orderInfo",
      "outputs": [
        {
          "internalType": "uint8",
          "name": "orderType",
          "type": "uint8"
        },
        {
          "internalType": "address",
          "name": "seller",
          "type": "address"
        },
        {
          "internalType": "contract IERC721",
          "name": "token",
          "type": "address"
        },
        {
          "internalType": "uint256",
          "name": "tokenId",
          "type": "uint256"
        },
        {
          "internalType": "uint256",
          "name": "startPrice",
          "type": "uint256"
        },
        {
          "internalType": "uint256",
          "name": "endPrice",
          "type": "uint256"
        },
        {
          "internalType": "uint256",
          "name": "startBlock",
          "type": "uint256"
        },
        {
          "internalType": "uint256",
          "name": "endBlock",
          "type": "uint256"
        },
        {
          "internalType": "uint256",
          "name": "lastBidPrice",
          "type": "uint256"
        },
        {
          "internalType": "address",
          "name": "lastBidder",
          "type": "address"
        },
        {
          "internalType": "bool",
          "name": "isSold",
          "type": "bool"
        },
        {
          "internalType": "address",
          "name": "creator",
          "type": "address"
        },
        {
          "internalType": "uint256",
          "name": "royaltyFeePercent",
          "type": "uint256"
        }
      ],
      "stateMutability": "view",
      "type": "function"
    },
    {
      "inputs": [],
      "name": "owner",
      "outputs": [
        {
          "internalType": "address",
          "name": "",
          "type": "address"
        }
      ],
      "stateMutability": "view",
      "type": "function"
    },
    {
      "inputs": [],
      "name": "renounceOwnership",
      "outputs": [],
      "stateMutability": "nonpayable",
      "type": "function"
    },
    {
      "inputs": [
        {
          "internalType": "address",
          "name": "_seller",
          "type": "address"
        }
      ],
      "name": "sellerOrderLength",
      "outputs": [
        {
          "internalType": "uint256",
          "name": "",
          "type": "uint256"
        }
      ],
      "stateMutability": "view",
      "type": "function"
    },
    {
      "inputs": [
        {
          "internalType": "address",
          "name": "_feeAddress",
          "type": "address"
        }
      ],
      "name": "setFeeAddress",
      "outputs": [],
      "stateMutability": "nonpayable",
      "type": "function"
    },
    {
      "inputs": [
        {
          "internalType": "contract IERC721",
          "name": "_token",
          "type": "address"
        },
        {
          "internalType": "uint256",
          "name": "_id",
          "type": "uint256"
        }
      ],
      "name": "tokenOrderLength",
      "outputs": [
        {
          "internalType": "uint256",
          "name": "",
          "type": "uint256"
        }
      ],
      "stateMutability": "view",
      "type": "function"
    },
    {
      "inputs": [
        {
          "internalType": "address",
          "name": "newOwner",
          "type": "address"
        }
      ],
      "name": "transferOwnership",
      "outputs": [],
      "stateMutability": "nonpayable",
      "type": "function"
    },
    {
      "inputs": [
        {
          "internalType": "uint16",
          "name": "_percent",
          "type": "uint16"
        }
      ],
      "name": "updateFeePercent",
      "outputs": [],
      "stateMutability": "nonpayable",
      "type": "function"
    }
  ],
  "bytecode": "0x60806040523480156200001157600080fd5b50604051620020e4380380620020e4833981016040819052620000349162000124565b600080546001600160a01b031916339081178255604051909182917f8be0079c531659141344cd1fd0a4f28419497f9722a3daafe3b4186f6b6457e0908290a3506127108161ffff161115620000d05760405162461bcd60e51b815260206004820152601d60248201527f696e7075742076616c7565206973206d6f7265207468616e2031303025000000604482015260640160405180910390fd5b600480546001600160b01b0319163361ffff60a01b191617600160a01b61ffff9390931692909202919091179055600580546001600160a01b0319166001600160a01b039290921691909117905562000174565b600080604083850312156200013857600080fd5b82516001600160a01b03811681146200015057600080fd5b602084015190925061ffff811681146200016957600080fd5b809150509250929050565b611f6080620001846000396000f3fe6080604052600436106101055760003560e01c806308745c981461010a578063093dff7d1461013d578063150b7a021461015f578063161e444e146101a3578063167b78cd146101c357806319daa108146101f0578063238e203f14610233578063275e086c1461033e578063412753581461035e578063715018a61461037e5780637489ec23146103935780637fd6f15c146103b35780638035eb5c146103e85780638705fcd4146104085780638aae982a146104285780638ba39adb1461045e5780638da5cb5b14610471578063957bb1e014610486578063a04a86bd14610499578063bd66528a146104b9578063f2fde38b146104d9578063f4dae74c146104f9575b600080fd5b34801561011657600080fd5b5061012a610125366004611b80565b610519565b6040519081526020015b60405180910390f35b34801561014957600080fd5b5061015d610158366004611c57565b61054a565b005b34801561016b57600080fd5b5061018a61017a366004611aa1565b630a85bd0160e11b949350505050565b6040516001600160e01b03199091168152602001610134565b3480156101af57600080fd5b5061012a6101be366004611bce565b6105c7565b3480156101cf57600080fd5b506005546101e3906001600160a01b031681565b6040516101349190611cd8565b3480156101fc57600080fd5b5061012a61020b366004611b80565b6001600160a01b03919091166000908152600160209081526040808320938352929052205490565b34801561023f57600080fd5b506102c561024e366004611bce565b600360208190526000918252604090912080546001820154600283015493830154600484015460058501546006860154600787015460088801546009890154600a9099015460ff808a169b6001600160a01b03610100909b048b169b998b169a909984821694600160a01b9004909216929116908d565b6040805160ff909e168e526001600160a01b039c8d1660208f01529a8c169a8d019a909a5260608c019890985260808b019690965260a08a019490945260c089019290925260e088015261010087015284166101208601521515610140850152919091166101608301526101808201526101a001610134565b34801561034a57600080fd5b5061012a610359366004611be7565b610678565b34801561036a57600080fd5b506004546101e3906001600160a01b031681565b34801561038a57600080fd5b5061015d6106b6565b34801561039f57600080fd5b5061015d6103ae366004611bce565b61071d565b3480156103bf57600080fd5b506004546103d590600160a01b900461ffff1681565b60405161ffff9091168152602001610134565b3480156103f457600080fd5b5061015d610403366004611c1c565b610887565b34801561041457600080fd5b5061015d610423366004611a60565b61089d565b34801561043457600080fd5b5061012a610443366004611a60565b6001600160a01b031660009081526002602052604090205490565b61015d61046c366004611bce565b6108ee565b34801561047d57600080fd5b506101e3610f29565b61015d610494366004611bce565b610f38565b3480156104a557600080fd5b5061015d6104b4366004611c9b565b611198565b3480156104c557600080fd5b5061015d6104d4366004611bce565b61123f565b3480156104e557600080fd5b5061015d6104f4366004611a60565b6114aa565b34801561050557600080fd5b5061015d610514366004611c1c565b611587565b6002602052816000526040600020818154811061053557600080fd5b90600052602060002001600091509150505481565b8183116105b15760405162461bcd60e51b815260206004820152602a60248201527f456e642070726963652073686f756c64206265206c6f776572207468616e20736044820152697461727420707269636560b01b60648201526084015b60405180910390fd5b6105c060018686868686611593565b5050505050565b6000818152600360205260408120805460ff16806105ea57506003015492915050565b8060ff16600214156106165760078201548015610607578061060d565b82600301545b95945050505050565b600382015460058301546006840154600090610633908390611e8f565b60048601546106429085611e8f565b61064c9190611e4e565b9050806106598343611e8f565b6106639190611e70565b61066d9084611e8f565b979650505050505050565b600160205282600052604060002060205281600052604060002081815481106106a057600080fd5b9060005260206000200160009250925050505481565b336106bf610f29565b6001600160a01b0316146106e55760405162461bcd60e51b81526004016105a890611d50565b600080546040516001600160a01b0390911690600080516020611f0b833981519152908390a3600080546001600160a01b0319169055565b6000818152600360205260409020805461010090046001600160a01b031633146107595760405162461bcd60e51b81526004016105a890611dad565b60078101541561079b5760405162461bcd60e51b815260206004820152600d60248201526c109a59191a5b99c8195e1a5cdd609a1b60448201526064016105a8565b6008810154600160a01b900460ff16156107c75760405162461bcd60e51b81526004016105a890611dd4565b6001810154600282015460006006840155604051632142170760e11b81526001600160a01b039092169182906342842e0e9061080b90309033908690600401611cec565b600060405180830381600087803b15801561082557600080fd5b505af1158015610839573d6000803e3d6000fd5b5050505083826001600160a01b03167f856ac238bc6f4bb0c966003f34f148bf0ef3b60f266e451474de23ff78196c8b8333604051610879929190611dfa565b60405180910390a350505050565b6108976000858585600086611593565b50505050565b336108a6610f29565b6001600160a01b0316146108cc5760405162461bcd60e51b81526004016105a890611d50565b600480546001600160a01b0319166001600160a01b0392909216919091179055565b600081815260036020526040902060068101548061091e5760405162461bcd60e51b81526004016105a890611d85565b4281116109585760405162461bcd60e51b815260206004820152600860248201526724ba399037bb32b960c11b60448201526064016105a8565b815460ff16156109a65760405162461bcd60e51b815260206004820152601960248201527824ba39903737ba1030903334bc10383934b1b29037b93232b960391b60448201526064016105a8565b6008820154600160a01b900460ff16156109d25760405162461bcd60e51b81526004016105a890611dd4565b60006109dd846105c7565b600884018054600160a01b60ff60a01b19909116811790915560045491925060009161271091610a12910461ffff1684611e70565b610a1c9190611e4e565b9050600061271085600a015484610a339190611e70565b610a3d9190611e4e565b6005546040516370a0823160e01b81529192506000916001600160a01b03909116906370a0823190610a73903390600401611cd8565b60206040518083038186803b158015610a8b57600080fd5b505afa158015610a9f573d6000803e3d6000fd5b505050506040513d601f19601f82011682018060405250810190610ac39190611cbf565b9050600083610ad28487611e36565b610adc9190611e36565b8754600989015491925061010090046001600160a01b0390811691161415610b0f5760009250610b0c8486611e36565b90505b80821015610b5a5760405162461bcd60e51b815260206004820152601860248201527753656e6465722062616c616e636520697320746f206c6f7760401b60448201526064016105a8565b600554604051636eb1769f60e11b815233600482015230602482015282916001600160a01b03169063dd62ed3e9060440160206040518083038186803b158015610ba357600080fd5b505afa158015610bb7573d6000803e3d6000fd5b505050506040513d601f19601f82011682018060405250810190610bdb9190611cbf565b1015610c1f5760405162461bcd60e51b815260206004820152601360248201527210985b185b98d9481b9bdd08185b1b1bddd959606a1b60448201526064016105a8565b6005546040516323b872dd60e01b81526001600160a01b03909116906323b872dd90610c5390339030908690600401611cec565b602060405180830381600087803b158015610c6d57600080fd5b505af1158015610c81573d6000803e3d6000fd5b505050506040513d601f19601f82011682018060405250810190610ca59190611bac565b506005546004805460405163a9059cbb60e01b81526001600160a01b039384169363a9059cbb93610cdc9390911691899101611d10565b602060405180830381600087803b158015610cf657600080fd5b505af1158015610d0a573d6000803e3d6000fd5b505050506040513d601f19601f82011682018060405250810190610d2e9190611bac565b50865460098801546001600160a01b039081166101009092041614610dd957600554600988015460405163a9059cbb60e01b81526001600160a01b039283169263a9059cbb92610d85929116908790600401611d10565b602060405180830381600087803b158015610d9f57600080fd5b505af1158015610db3573d6000803e3d6000fd5b505050506040513d601f19601f82011682018060405250810190610dd79190611bac565b505b600554875460405163a9059cbb60e01b81526001600160a01b039283169263a9059cbb92610e1592610100909104909116908990600401611d10565b602060405180830381600087803b158015610e2f57600080fd5b505af1158015610e43573d6000803e3d6000fd5b505050506040513d601f19601f82011682018060405250810190610e679190611bac565b5060018701546002880154604051632142170760e11b81526001600160a01b03909216916342842e0e91610ea19130913391600401611cec565b600060405180830381600087803b158015610ebb57600080fd5b505af1158015610ecf573d6000803e3d6000fd5b505050506001870154600288015488546040518b936001600160a01b0390811693600080516020611eeb83398151915293610f17939192610100909104169033908c90611e11565b60405180910390a35050505050505050565b6000546001600160a01b031690565b600081815260036020526040902060068101546007820154600883015483546001600160a01b039091169060ff16600214610fb05760405162461bcd60e51b815260206004820152601860248201527737b7363c903337b91022b733b634b9b41020bab1ba34b7b760411b60448201526064016105a8565b82610fcd5760405162461bcd60e51b81526004016105a890611d85565b824311156110095760405162461bcd60e51b815260206004820152600960248201526824ba13b99037bb32b960b91b60448201526064016105a8565b835461010090046001600160a01b03163314156110645760405162461bcd60e51b815260206004820152601960248201527821b0b7103737ba103134b2103a37903cb7bab91037b93232b960391b60448201526064016105a8565b81156110a357611075601483611e4e565b61107f9083611e36565b34101561109e5760405162461bcd60e51b81526004016105a890611d29565b6110d3565b836003015434101580156110b75750600034115b6110d35760405162461bcd60e51b81526004016105a890611d29565b6110de601484611e8f565b4311156110f6576110f0836014611e36565b60068501555b6008840180546001600160a01b03191633179055346007850155811561113c576040516001600160a01b0382169083156108fc029084906000818181858888f150505050505b6001840154600285015460408051918252336020830152349082015286916001600160a01b0316907f7f99059564a74b5d2e3fbf994dec403ab0af5688c9a4e86ca2a933688eaf223b9060600160405180910390a35050505050565b336111a1610f29565b6001600160a01b0316146111c75760405162461bcd60e51b81526004016105a890611d50565b6127108161ffff16111561121d5760405162461bcd60e51b815260206004820152601d60248201527f696e7075742076616c7565206973206d6f7265207468616e203130302500000060448201526064016105a8565b6004805461ffff909216600160a01b0261ffff60a01b19909216919091179055565b6000818152600360205260409020805460088201546001600160a01b0361010090920482169181169060ff600160a01b90910416156112905760405162461bcd60e51b81526004016105a890611dd4565b6001600160a01b0382163314806112af57506001600160a01b03811633145b6112cb5760405162461bcd60e51b81526004016105a890611dad565b825460ff1660021461132b5760405162461bcd60e51b8152602060048201526024808201527f546869732066756e6374696f6e20697320666f7220456e676c697368204175636044820152633a34b7b760e11b60648201526084016105a8565b826006015443116113685760405162461bcd60e51b8152602060048201526007602482015266139bdd081e595d60ca1b60448201526064016105a8565b6001830154600284015460078501546004546001600160a01b0390931692600090612710906113a290600160a01b900461ffff1684611e70565b6113ac9190611e4e565b60088801805460ff60a01b1916600160a01b17905590506001600160a01b0386166108fc6113da8385611e8f565b6040518115909202916000818181858888f150506004546040516001600160a01b03909116935084156108fc0292508491506000818181858888f15050604051632142170760e11b81526001600160a01b03881693506342842e0e925061144a9150309089908890600401611cec565b600060405180830381600087803b15801561146457600080fd5b505af1158015611478573d6000803e3d6000fd5b5050505087846001600160a01b0316600080516020611eeb83398151915285898987604051610f179493929190611e11565b336114b3610f29565b6001600160a01b0316146114d95760405162461bcd60e51b81526004016105a890611d50565b6001600160a01b03811661153e5760405162461bcd60e51b815260206004820152602660248201527f4f776e61626c653a206e6577206f776e657220697320746865207a65726f206160448201526564647265737360d01b60648201526084016105a8565b600080546040516001600160a01b0380851693921691600080516020611f0b83398151915291a3600080546001600160a01b0319166001600160a01b0392909216919091179055565b61089760028585856000865b4281116115e25760405162461bcd60e51b815260206004820152601f60248201527f4475726174696f6e206d757374206265206d6f7265207468616e207a65726f0060448201526064016105a8565b60408051426020808301919091526001600160601b0319606089811b8216848601526054840189905233901b1660748301528251808303606801815260889092019092528051910120600090604051636a4731c560e11b8152600481018790529091506000906001600160a01b0388169063d48e638a9060240160206040518083038186803b15801561167457600080fd5b505afa158015611688573d6000803e3d6000fd5b505050506040513d601f19601f820116820180604052508101906116ac9190611a84565b604051639e4c014160e01b8152600481018890529091506000906001600160a01b03891690639e4c01419060240160206040518083038186803b1580156116f257600080fd5b505afa158015611706573d6000803e3d6000fd5b505050506040513d601f19601f8201168201806040525081019061172a9190611cbf565b9050604051806101a001604052808a60ff168152602001336001600160a01b03168152602001896001600160a01b031681526020018881526020018781526020018681526020014281526020018581526020016000815260200160006001600160a01b03168152602001600015158152602001836001600160a01b03168152602001828152506003600085815260200190815260200160002060008201518160000160006101000a81548160ff021916908360ff16021790555060208201518160000160016101000a8154816001600160a01b0302191690836001600160a01b0316021790555060408201518160010160006101000a8154816001600160a01b0302191690836001600160a01b03160217905550606082015181600201556080820151816003015560a0820151816004015560c0820151816005015560e0820151816006015561010082015181600701556101208201518160080160006101000a8154816001600160a01b0302191690836001600160a01b031602179055506101408201518160080160146101000a81548160ff0219169083151502179055506101608201518160090160006101000a8154816001600160a01b0302191690836001600160a01b0316021790555061018082015181600a015590505060016000896001600160a01b03166001600160a01b03168152602001908152602001600020600088815260200190815260200160002083908060018154018082558091505060019003906000526020600020016000909190919091505560026000336001600160a01b03166001600160a01b03168152602001908152602001600020839080600181540180825580915050600190039060005260206000200160009091909190915055876001600160a01b03166342842e0e33308a6040518463ffffffff1660e01b81526004016119df93929190611cec565b600060405180830381600087803b1580156119f957600080fd5b505af1158015611a0d573d6000803e3d6000fd5b5050505082886001600160a01b03167f165b17602125a20b222f9736f06d776e39507d7dc60ddef32ccc23ea2f1b50e58933604051611a4d929190611dfa565b60405180910390a3505050505050505050565b600060208284031215611a7257600080fd5b8135611a7d81611ed2565b9392505050565b600060208284031215611a9657600080fd5b8151611a7d81611ed2565b60008060008060808587031215611ab757600080fd5b8435611ac281611ed2565b93506020850135611ad281611ed2565b92506040850135915060608501356001600160401b0380821115611af557600080fd5b818701915087601f830112611b0957600080fd5b813581811115611b1b57611b1b611ebc565b604051601f8201601f19908116603f01168101908382118183101715611b4357611b43611ebc565b816040528281528a6020848701011115611b5c57600080fd5b82602086016020830137600060208483010152809550505050505092959194509250565b60008060408385031215611b9357600080fd5b8235611b9e81611ed2565b946020939093013593505050565b600060208284031215611bbe57600080fd5b81518015158114611a7d57600080fd5b600060208284031215611be057600080fd5b5035919050565b600080600060608486031215611bfc57600080fd5b8335611c0781611ed2565b95602085013595506040909401359392505050565b60008060008060808587031215611c3257600080fd5b8435611c3d81611ed2565b966020860135965060408601359560600135945092505050565b600080600080600060a08688031215611c6f57600080fd5b8535611c7a81611ed2565b97602087013597506040870135966060810135965060800135945092505050565b600060208284031215611cad57600080fd5b813561ffff81168114611a7d57600080fd5b600060208284031215611cd157600080fd5b5051919050565b6001600160a01b0391909116815260200190565b6001600160a01b039384168152919092166020820152604081019190915260600190565b6001600160a01b03929092168252602082015260400190565b6020808252600d908201526c1b1bddc81c1c9a58d948189a59609a1b604082015260600190565b6020808252818101527f4f776e61626c653a2063616c6c6572206973206e6f7420746865206f776e6572604082015260600190565b6020808252600e908201526d21b0b731b2b632b21037b93232b960911b604082015260600190565b6020808252600d908201526c1058d8d95cdcc819195b9a5959609a1b604082015260600190565b6020808252600c908201526b105b1c9958591e481cdbdb1960a21b604082015260600190565b9182526001600160a01b0316602082015260400190565b9384526001600160a01b03928316602085015291166040830152606082015260800190565b60008219821115611e4957611e49611ea6565b500190565b600082611e6b57634e487b7160e01b600052601260045260246000fd5b500490565b6000816000190483118215151615611e8a57611e8a611ea6565b500290565b600082821015611ea157611ea1611ea6565b500390565b634e487b7160e01b600052601160045260246000fd5b634e487b7160e01b600052604160045260246000fd5b6001600160a01b0381168114611ee757600080fd5b5056fe37a6d1163573be2522695f96cbee3037bf297187c0378e8903ac1ae0192f699f8be0079c531659141344cd1fd0a4f28419497f9722a3daafe3b4186f6b6457e0a2646970667358221220abe7c1f8070c4c5e2f6046878287c16c7b0a8e5b3f1b08e02baf7b67bed99f1564736f6c63430008070033",
  "linkReferences": {},
  "deployedLinkReferences": {}
}