{
  "_format": "hh-sol-artifact-1",
  "contractName": "NFTEX",
  "sourceName": "contracts/NFTEX.sol",
  "abi": [
    {
      "inputs": [
        {
          "internalType": "address",
          "name": "tokenERC20",
          "type": "address"
        },
        {
          "internalType": "uint16",
          "name": "_feePercent",
          "type": "uint16"
        }
      ],
      "stateMutability": "nonpayable",
      "type": "constructor"
    },
    {
      "anonymous": false,
      "inputs": [
        {
          "indexed": true,
          "internalType": "contract IERC721Metadata",
          "name": "token",
          "type": "address"
        },
        {
          "indexed": false,
          "internalType": "uint256",
          "name": "id",
          "type": "uint256"
        },
        {
          "indexed": true,
          "internalType": "bytes32",
          "name": "hash",
          "type": "bytes32"
        },
        {
          "indexed": false,
          "internalType": "address",
          "name": "bidder",
          "type": "address"
        },
        {
          "indexed": false,
          "internalType": "uint256",
          "name": "bidPrice",
          "type": "uint256"
        },
        {
          "indexed": false,
          "internalType": "string",
          "name": "uri",
          "type": "string"
        }
      ],
      "name": "Bid",
      "type": "event"
    },
    {
      "anonymous": false,
      "inputs": [
        {
          "indexed": true,
          "internalType": "contract IERC721Metadata",
          "name": "token",
          "type": "address"
        },
        {
          "indexed": false,
          "internalType": "uint256",
          "name": "id",
          "type": "uint256"
        },
        {
          "indexed": true,
          "internalType": "bytes32",
          "name": "hash",
          "type": "bytes32"
        },
        {
          "indexed": false,
          "internalType": "address",
          "name": "seller",
          "type": "address"
        },
        {
          "indexed": false,
          "internalType": "string",
          "name": "uri",
          "type": "string"
        }
      ],
      "name": "CancelOrder",
      "type": "event"
    },
    {
      "anonymous": false,
      "inputs": [
        {
          "indexed": true,
          "internalType": "contract IERC721Metadata",
          "name": "token",
          "type": "address"
        },
        {
          "indexed": false,
          "internalType": "uint256",
          "name": "id",
          "type": "uint256"
        },
        {
          "indexed": true,
          "internalType": "bytes32",
          "name": "hash",
          "type": "bytes32"
        },
        {
          "indexed": false,
          "internalType": "address",
          "name": "seller",
          "type": "address"
        },
        {
          "indexed": false,
          "internalType": "address",
          "name": "taker",
          "type": "address"
        },
        {
          "indexed": false,
          "internalType": "uint256",
          "name": "price",
          "type": "uint256"
        },
        {
          "indexed": false,
          "internalType": "string",
          "name": "uri",
          "type": "string"
        }
      ],
      "name": "Claim",
      "type": "event"
    },
    {
      "anonymous": false,
      "inputs": [
        {
          "indexed": true,
          "internalType": "contract IERC721Metadata",
          "name": "token",
          "type": "address"
        },
        {
          "indexed": false,
          "internalType": "uint256",
          "name": "id",
          "type": "uint256"
        },
        {
          "indexed": true,
          "internalType": "bytes32",
          "name": "hash",
          "type": "bytes32"
        },
        {
          "indexed": false,
          "internalType": "address",
          "name": "seller",
          "type": "address"
        },
        {
          "indexed": false,
          "internalType": "string",
          "name": "uri",
          "type": "string"
        },
        {
          "indexed": false,
          "internalType": "uint256",
          "name": "timestamp",
          "type": "uint256"
        },
        {
          "indexed": false,
          "internalType": "uint256",
          "name": "price",
          "type": "uint256"
        }
      ],
      "name": "MakeOrder",
      "type": "event"
    },
    {
      "anonymous": false,
      "inputs": [
        {
          "indexed": true,
          "internalType": "address",
          "name": "previousOwner",
          "type": "address"
        },
        {
          "indexed": true,
          "internalType": "address",
          "name": "newOwner",
          "type": "address"
        }
      ],
      "name": "OwnershipTransferred",
      "type": "event"
    },
    {
      "inputs": [
        {
          "internalType": "bytes32",
          "name": "_order",
          "type": "bytes32"
        }
      ],
      "name": "bid",
      "outputs": [],
      "stateMutability": "payable",
      "type": "function"
    },
    {
      "inputs": [
        {
          "internalType": "bytes32",
          "name": "_order",
          "type": "bytes32"
        }
      ],
      "name": "buyItNow",
      "outputs": [],
      "stateMutability": "payable",
      "type": "function"
    },
    {
      "inputs": [
        {
          "internalType": "bytes32",
          "name": "_order",
          "type": "bytes32"
        }
      ],
      "name": "cancelOrder",
      "outputs": [],
      "stateMutability": "nonpayable",
      "type": "function"
    },
    {
      "inputs": [
        {
          "internalType": "bytes32",
          "name": "_order",
          "type": "bytes32"
        }
      ],
      "name": "claim",
      "outputs": [],
      "stateMutability": "nonpayable",
      "type": "function"
    },
    {
      "inputs": [
        {
          "internalType": "contract IERC721Metadata",
          "name": "_token",
          "type": "address"
        },
        {
          "internalType": "uint256",
          "name": "_id",
          "type": "uint256"
        },
        {
          "internalType": "uint256",
          "name": "_startPrice",
          "type": "uint256"
        },
        {
          "internalType": "uint256",
          "name": "_endPrice",
          "type": "uint256"
        },
        {
          "internalType": "uint256",
          "name": "_endBlock",
          "type": "uint256"
        }
      ],
      "name": "dutchAuction",
      "outputs": [],
      "stateMutability": "nonpayable",
      "type": "function"
    },
    {
      "inputs": [
        {
          "internalType": "contract IERC721Metadata",
          "name": "_token",
          "type": "address"
        },
        {
          "internalType": "uint256",
          "name": "_id",
          "type": "uint256"
        },
        {
          "internalType": "uint256",
          "name": "_startPrice",
          "type": "uint256"
        },
        {
          "internalType": "uint256",
          "name": "_endBlock",
          "type": "uint256"
        }
      ],
      "name": "englishAuction",
      "outputs": [],
      "stateMutability": "nonpayable",
      "type": "function"
    },
    {
      "inputs": [],
      "name": "feeAddress",
      "outputs": [
        {
          "internalType": "address",
          "name": "",
          "type": "address"
        }
      ],
      "stateMutability": "view",
      "type": "function"
    },
    {
      "inputs": [],
      "name": "feePercent",
      "outputs": [
        {
          "internalType": "uint16",
          "name": "",
          "type": "uint16"
        }
      ],
      "stateMutability": "view",
      "type": "function"
    },
    {
      "inputs": [
        {
          "internalType": "contract IERC721Metadata",
          "name": "_token",
          "type": "address"
        },
        {
          "internalType": "uint256",
          "name": "_id",
          "type": "uint256"
        },
        {
          "internalType": "uint256",
          "name": "_price",
          "type": "uint256"
        },
        {
          "internalType": "uint256",
          "name": "_endTimestamp",
          "type": "uint256"
        }
      ],
      "name": "fixedPrice",
      "outputs": [],
      "stateMutability": "nonpayable",
      "type": "function"
    },
    {
      "inputs": [
        {
          "internalType": "bytes32",
          "name": "_order",
          "type": "bytes32"
        }
      ],
      "name": "getCurrentPrice",
      "outputs": [
        {
          "internalType": "uint256",
          "name": "",
          "type": "uint256"
        }
      ],
      "stateMutability": "view",
      "type": "function"
    },
    {
      "inputs": [],
      "name": "nativeCoin",
      "outputs": [
        {
          "internalType": "contract IERC20",
          "name": "",
          "type": "address"
        }
      ],
      "stateMutability": "view",
      "type": "function"
    },
    {
      "inputs": [
        {
          "internalType": "address",
          "name": "",
          "type": "address"
        },
        {
          "internalType": "address",
          "name": "",
          "type": "address"
        },
        {
          "internalType": "uint256",
          "name": "",
          "type": "uint256"
        },
        {
          "internalType": "bytes",
          "name": "",
          "type": "bytes"
        }
      ],
      "name": "onERC721Received",
      "outputs": [
        {
          "internalType": "bytes4",
          "name": "",
          "type": "bytes4"
        }
      ],
      "stateMutability": "nonpayable",
      "type": "function"
    },
    {
      "inputs": [
        {
          "internalType": "address",
          "name": "",
          "type": "address"
        },
        {
          "internalType": "uint256",
          "name": "",
          "type": "uint256"
        }
      ],
      "name": "orderIdBySeller",
      "outputs": [
        {
          "internalType": "bytes32",
          "name": "",
          "type": "bytes32"
        }
      ],
      "stateMutability": "view",
      "type": "function"
    },
    {
      "inputs": [
        {
          "internalType": "contract IERC721Metadata",
          "name": "",
          "type": "address"
        },
        {
          "internalType": "uint256",
          "name": "",
          "type": "uint256"
        },
        {
          "internalType": "uint256",
          "name": "",
          "type": "uint256"
        }
      ],
      "name": "orderIdByToken",
      "outputs": [
        {
          "internalType": "bytes32",
          "name": "",
          "type": "bytes32"
        }
      ],
      "stateMutability": "view",
      "type": "function"
    },
    {
      "inputs": [
        {
          "internalType": "bytes32",
          "name": "",
          "type": "bytes32"
        }
      ],
      "name": "orderInfo",
      "outputs": [
        {
          "internalType": "uint8",
          "name": "orderType",
          "type": "uint8"
        },
        {
          "internalType": "address",
          "name": "seller",
          "type": "address"
        },
        {
          "internalType": "contract IERC721Metadata",
          "name": "token",
          "type": "address"
        },
        {
          "internalType": "uint256",
          "name": "tokenId",
          "type": "uint256"
        },
        {
          "internalType": "uint256",
          "name": "startPrice",
          "type": "uint256"
        },
        {
          "internalType": "uint256",
          "name": "endPrice",
          "type": "uint256"
        },
        {
          "internalType": "uint256",
          "name": "startBlock",
          "type": "uint256"
        },
        {
          "internalType": "uint256",
          "name": "endBlock",
          "type": "uint256"
        },
        {
          "internalType": "uint256",
          "name": "lastBidPrice",
          "type": "uint256"
        },
        {
          "internalType": "address",
          "name": "lastBidder",
          "type": "address"
        },
        {
          "internalType": "bool",
          "name": "isSold",
          "type": "bool"
        },
        {
          "internalType": "address",
          "name": "creator",
          "type": "address"
        },
        {
          "internalType": "uint256",
          "name": "royaltyFeePercent",
          "type": "uint256"
        }
      ],
      "stateMutability": "view",
      "type": "function"
    },
    {
      "inputs": [],
      "name": "owner",
      "outputs": [
        {
          "internalType": "address",
          "name": "",
          "type": "address"
        }
      ],
      "stateMutability": "view",
      "type": "function"
    },
    {
      "inputs": [],
      "name": "renounceOwnership",
      "outputs": [],
      "stateMutability": "nonpayable",
      "type": "function"
    },
    {
      "inputs": [
        {
          "internalType": "address",
          "name": "_seller",
          "type": "address"
        }
      ],
      "name": "sellerOrderLength",
      "outputs": [
        {
          "internalType": "uint256",
          "name": "",
          "type": "uint256"
        }
      ],
      "stateMutability": "view",
      "type": "function"
    },
    {
      "inputs": [
        {
          "internalType": "address",
          "name": "_feeAddress",
          "type": "address"
        }
      ],
      "name": "setFeeAddress",
      "outputs": [],
      "stateMutability": "nonpayable",
      "type": "function"
    },
    {
      "inputs": [
        {
          "internalType": "contract IERC721Metadata",
          "name": "_token",
          "type": "address"
        },
        {
          "internalType": "uint256",
          "name": "_id",
          "type": "uint256"
        }
      ],
      "name": "tokenOrderLength",
      "outputs": [
        {
          "internalType": "uint256",
          "name": "",
          "type": "uint256"
        }
      ],
      "stateMutability": "view",
      "type": "function"
    },
    {
      "inputs": [
        {
          "internalType": "address",
          "name": "newOwner",
          "type": "address"
        }
      ],
      "name": "transferOwnership",
      "outputs": [],
      "stateMutability": "nonpayable",
      "type": "function"
    },
    {
      "inputs": [
        {
          "internalType": "uint16",
          "name": "_percent",
          "type": "uint16"
        }
      ],
      "name": "updateFeePercent",
      "outputs": [],
      "stateMutability": "nonpayable",
      "type": "function"
    }
  ],
  "bytecode": "0x60806040523480156200001157600080fd5b50604051620024d4380380620024d4833981016040819052620000349162000124565b600080546001600160a01b031916339081178255604051909182917f8be0079c531659141344cd1fd0a4f28419497f9722a3daafe3b4186f6b6457e0908290a3506127108161ffff161115620000d05760405162461bcd60e51b815260206004820152601d60248201527f696e7075742076616c7565206973206d6f7265207468616e2031303025000000604482015260640160405180910390fd5b600480546001600160b01b0319163361ffff60a01b191617600160a01b61ffff9390931692909202919091179055600580546001600160a01b0319166001600160a01b039290921691909117905562000174565b600080604083850312156200013857600080fd5b82516001600160a01b03811681146200015057600080fd5b602084015190925061ffff811681146200016957600080fd5b809150509250929050565b61235080620001846000396000f3fe6080604052600436106101055760003560e01c806308745c981461010a578063093dff7d1461013d578063150b7a021461015f578063161e444e146101a3578063167b78cd146101c357806319daa108146101f0578063238e203f14610233578063275e086c1461033e578063412753581461035e578063715018a61461037e5780637489ec23146103935780637fd6f15c146103b35780638035eb5c146103e85780638705fcd4146104085780638aae982a146104285780638ba39adb1461045e5780638da5cb5b14610471578063957bb1e014610486578063a04a86bd14610499578063bd66528a146104b9578063f2fde38b146104d9578063f4dae74c146104f9575b600080fd5b34801561011657600080fd5b5061012a610125366004611db8565b610519565b6040519081526020015b60405180910390f35b34801561014957600080fd5b5061015d610158366004611e8f565b61054a565b005b34801561016b57600080fd5b5061018a61017a366004611d0a565b630a85bd0160e11b949350505050565b6040516001600160e01b03199091168152602001610134565b3480156101af57600080fd5b5061012a6101be366004611e06565b6105c7565b3480156101cf57600080fd5b506005546101e3906001600160a01b031681565b6040516101349190611fa9565b3480156101fc57600080fd5b5061012a61020b366004611db8565b6001600160a01b03919091166000908152600160209081526040808320938352929052205490565b34801561023f57600080fd5b506102c561024e366004611e06565b600360208190526000918252604090912080546001820154600283015493830154600484015460058501546006860154600787015460088801546009890154600a9099015460ff808a169b6001600160a01b03610100909b048b169b998b169a909984821694600160a01b9004909216929116908d565b6040805160ff909e168e526001600160a01b039c8d1660208f01529a8c169a8d019a909a5260608c019890985260808b019690965260a08a019490945260c089019290925260e088015261010087015284166101208601521515610140850152919091166101608301526101808201526101a001610134565b34801561034a57600080fd5b5061012a610359366004611e1f565b610678565b34801561036a57600080fd5b506004546101e3906001600160a01b031681565b34801561038a57600080fd5b5061015d6106b6565b34801561039f57600080fd5b5061015d6103ae366004611e06565b61071d565b3480156103bf57600080fd5b506004546103d590600160a01b900461ffff1681565b60405161ffff9091168152602001610134565b3480156103f457600080fd5b5061015d610403366004611e54565b61090b565b34801561041457600080fd5b5061015d610423366004611cc9565b610921565b34801561043457600080fd5b5061012a610443366004611cc9565b6001600160a01b031660009081526002602052604090205490565b61015d61046c366004611e06565b610972565b34801561047d57600080fd5b506101e361102b565b61015d610494366004611e06565b61103a565b3480156104a557600080fd5b5061015d6104b4366004611f40565b6112fd565b3480156104c557600080fd5b5061015d6104d4366004611e06565b6113a4565b3480156104e557600080fd5b5061015d6104f4366004611cc9565b61163c565b34801561050557600080fd5b5061015d610514366004611e54565b611719565b6002602052816000526040600020818154811061053557600080fd5b90600052602060002001600091509150505481565b8183116105b15760405162461bcd60e51b815260206004820152602a60248201527f456e642070726963652073686f756c64206265206c6f776572207468616e20736044820152697461727420707269636560b01b60648201526084015b60405180910390fd5b6105c060018686868686611725565b5050505050565b6000818152600360205260408120805460ff16806105ea57506003015492915050565b8060ff16600214156106165760078201548015610607578061060d565b82600301545b95945050505050565b600382015460058301546006840154600090610633908390612253565b60048601546106429085612253565b61064c9190612212565b9050806106598343612253565b6106639190612234565b61066d9084612253565b979650505050505050565b600160205282600052604060002060205281600052604060002081815481106106a057600080fd5b9060005260206000200160009250925050505481565b336106bf61102b565b6001600160a01b0316146106e55760405162461bcd60e51b81526004016105a890612021565b600080546040516001600160a01b03909116906000805160206122db833981519152908390a3600080546001600160a01b0319169055565b6000818152600360205260409020805461010090046001600160a01b031633146107595760405162461bcd60e51b81526004016105a89061207e565b60078101541561079b5760405162461bcd60e51b815260206004820152600d60248201526c109a59191a5b99c8195e1a5cdd609a1b60448201526064016105a8565b6008810154600160a01b900460ff16156107c75760405162461bcd60e51b81526004016105a8906120a5565b6001810154600282015460006006840181905560405163c87b56dd60e01b8152600481018390526001600160a01b0390931692839063c87b56dd9060240160006040518083038186803b15801561081d57600080fd5b505afa158015610831573d6000803e3d6000fd5b505050506040513d6000823e601f3d908101601f191682016040526108599190810190611ed3565b604051632142170760e11b81529091506001600160a01b038416906342842e0e9061088c90309033908790600401611fbd565b600060405180830381600087803b1580156108a657600080fd5b505af11580156108ba573d6000803e3d6000fd5b5050505084836001600160a01b03167fea75cc2422fd6c7ff84e7b291bb7cb90c76e23fd1bd8b168003f5fe05d87bc6b8433856040516108fc93929190612104565b60405180910390a35050505050565b61091b6000858585600086611725565b50505050565b3361092a61102b565b6001600160a01b0316146109505760405162461bcd60e51b81526004016105a890612021565b600480546001600160a01b0319166001600160a01b0392909216919091179055565b60008181526003602052604090206006810154806109a25760405162461bcd60e51b81526004016105a890612056565b4281116109dc5760405162461bcd60e51b815260206004820152600860248201526724ba399037bb32b960c11b60448201526064016105a8565b815460ff1615610a2a5760405162461bcd60e51b815260206004820152601960248201527824ba39903737ba1030903334bc10383934b1b29037b93232b960391b60448201526064016105a8565b6008820154600160a01b900460ff1615610a565760405162461bcd60e51b81526004016105a8906120a5565b6000610a61846105c7565b600884018054600160a01b60ff60a01b19909116811790915560045491925060009161271091610a96910461ffff1684612234565b610aa09190612212565b9050600061271085600a015484610ab79190612234565b610ac19190612212565b6005546040516370a0823160e01b81529192506000916001600160a01b03909116906370a0823190610af7903390600401611fa9565b60206040518083038186803b158015610b0f57600080fd5b505afa158015610b23573d6000803e3d6000fd5b505050506040513d601f19601f82011682018060405250810190610b479190611f64565b9050600083610b568487612253565b610b609190612253565b8754600989015491925061010090046001600160a01b0390811691161415610b935760009250610b908486612253565b90505b84821015610bde5760405162461bcd60e51b815260206004820152601860248201527753656e6465722062616c616e636520697320746f206c6f7760401b60448201526064016105a8565b600554604051636eb1769f60e11b815233600482015230602482015286916001600160a01b03169063dd62ed3e9060440160206040518083038186803b158015610c2757600080fd5b505afa158015610c3b573d6000803e3d6000fd5b505050506040513d601f19601f82011682018060405250810190610c5f9190611f64565b1015610ca35760405162461bcd60e51b815260206004820152601360248201527210985b185b98d9481b9bdd08185b1b1bddd959606a1b60448201526064016105a8565b6005546040516323b872dd60e01b81526001600160a01b03909116906323b872dd90610cd790339030908a90600401611fbd565b602060405180830381600087803b158015610cf157600080fd5b505af1158015610d05573d6000803e3d6000fd5b505050506040513d601f19601f82011682018060405250810190610d299190611de4565b506005546004805460405163a9059cbb60e01b81526001600160a01b039384169363a9059cbb93610d609390911691899101611fe1565b602060405180830381600087803b158015610d7a57600080fd5b505af1158015610d8e573d6000803e3d6000fd5b505050506040513d601f19601f82011682018060405250810190610db29190611de4565b50865460098801546001600160a01b039081166101009092041614610e5d57600554600988015460405163a9059cbb60e01b81526001600160a01b039283169263a9059cbb92610e09929116908790600401611fe1565b602060405180830381600087803b158015610e2357600080fd5b505af1158015610e37573d6000803e3d6000fd5b505050506040513d601f19601f82011682018060405250810190610e5b9190611de4565b505b600554875460405163a9059cbb60e01b81526001600160a01b039283169263a9059cbb92610e9992610100909104909116908590600401611fe1565b602060405180830381600087803b158015610eb357600080fd5b505af1158015610ec7573d6000803e3d6000fd5b505050506040513d601f19601f82011682018060405250810190610eeb9190611de4565b5060018701546002880154604051632142170760e11b81526001600160a01b03909216916342842e0e91610f259130913391600401611fbd565b600060405180830381600087803b158015610f3f57600080fd5b505af1158015610f53573d6000803e3d6000fd5b50505060018801546002890154895460405163c87b56dd60e01b81528c94506001600160a01b03938416936000805160206122fb83398151915293926101009004169033908b90869063c87b56dd90610fb490879060040190815260200190565b60006040518083038186803b158015610fcc57600080fd5b505afa158015610fe0573d6000803e3d6000fd5b505050506040513d6000823e601f3d908101601f191682016040526110089190810190611ed3565b6040516110199594939291906120cb565b60405180910390a35050505050505050565b6000546001600160a01b031690565b600081815260036020526040902060068101546007820154600883015483546001600160a01b039091169060ff166002146110b25760405162461bcd60e51b815260206004820152601860248201527737b7363c903337b91022b733b634b9b41020bab1ba34b7b760411b60448201526064016105a8565b826110cf5760405162461bcd60e51b81526004016105a890612056565b8243111561110b5760405162461bcd60e51b815260206004820152600960248201526824ba13b99037bb32b960b91b60448201526064016105a8565b835461010090046001600160a01b03163314156111665760405162461bcd60e51b815260206004820152601960248201527821b0b7103737ba103134b2103a37903cb7bab91037b93232b960391b60448201526064016105a8565b81156111a557611177601483612212565b61118190836121fa565b3410156111a05760405162461bcd60e51b81526004016105a890611ffa565b6111d5565b836003015434101580156111b95750600034115b6111d55760405162461bcd60e51b81526004016105a890611ffa565b6111e0601484612253565b4311156111f8576111f28360146121fa565b60068501555b6008840180546001600160a01b03191633179055346007850155811561123e576040516001600160a01b0382169083156108fc029084906000818181858888f150505050505b6001840154600285015460405163c87b56dd60e01b81526004810182905287926001600160a01b0316917f5ca80575375369c82454451617d9b30fcc3abc766ff5dfdc69d9319a837ecf2e9133903490859063c87b56dd9060240160006040518083038186803b1580156112b157600080fd5b505afa1580156112c5573d6000803e3d6000fd5b505050506040513d6000823e601f3d908101601f191682016040526112ed9190810190611ed3565b6040516108fc949392919061216c565b3361130661102b565b6001600160a01b03161461132c5760405162461bcd60e51b81526004016105a890612021565b6127108161ffff1611156113825760405162461bcd60e51b815260206004820152601d60248201527f696e7075742076616c7565206973206d6f7265207468616e203130302500000060448201526064016105a8565b6004805461ffff909216600160a01b0261ffff60a01b19909216919091179055565b6000818152600360205260409020805460088201546001600160a01b0361010090920482169181169060ff600160a01b90910416156113f55760405162461bcd60e51b81526004016105a8906120a5565b6001600160a01b03821633148061141457506001600160a01b03811633145b6114305760405162461bcd60e51b81526004016105a89061207e565b825460ff166002146114905760405162461bcd60e51b8152602060048201526024808201527f546869732066756e6374696f6e20697320666f7220456e676c697368204175636044820152633a34b7b760e11b60648201526084016105a8565b826006015443116114cd5760405162461bcd60e51b8152602060048201526007602482015266139bdd081e595d60ca1b60448201526064016105a8565b6001830154600284015460078501546004546001600160a01b03909316926000906127109061150790600160a01b900461ffff1684612234565b6115119190612212565b60088801805460ff60a01b1916600160a01b17905590506001600160a01b0386166108fc61153f8385612253565b6040518115909202916000818181858888f150506004546040516001600160a01b03909116935084156108fc0292508491506000818181858888f15050604051632142170760e11b81526001600160a01b03881693506342842e0e92506115af9150309089908890600401611fbd565b600060405180830381600087803b1580156115c957600080fd5b505af11580156115dd573d6000803e3d6000fd5b5050506003880154600189015460028a015460405163c87b56dd60e01b81528c94506001600160a01b03808a16946000805160206122fb833981519152948a948e948e94929092169163c87b56dd91610fb49160040190815260200190565b3361164561102b565b6001600160a01b03161461166b5760405162461bcd60e51b81526004016105a890612021565b6001600160a01b0381166116d05760405162461bcd60e51b815260206004820152602660248201527f4f776e61626c653a206e6577206f776e657220697320746865207a65726f206160448201526564647265737360d01b60648201526084016105a8565b600080546040516001600160a01b03808516939216916000805160206122db83398151915291a3600080546001600160a01b0319166001600160a01b0392909216919091179055565b61091b60028585856000865b4281116117745760405162461bcd60e51b815260206004820152601f60248201527f4475726174696f6e206d757374206265206d6f7265207468616e207a65726f0060448201526064016105a8565b600083116117c35760405162461bcd60e51b815260206004820152601c60248201527b5072696365206d757374206265206d6f7265207468616e207a65726f60201b60448201526064016105a8565b60408051426020808301919091526001600160601b0319606089811b8216848601526054840189905233901b1660748301528251808303606801815260889092019092528051910120600090604051636a4731c560e11b8152600481018790529091506000906001600160a01b0388169063d48e638a9060240160206040518083038186803b15801561185557600080fd5b505afa158015611869573d6000803e3d6000fd5b505050506040513d601f19601f8201168201806040525081019061188d9190611ced565b604051639e4c014160e01b8152600481018890529091506000906001600160a01b03891690639e4c01419060240160206040518083038186803b1580156118d357600080fd5b505afa1580156118e7573d6000803e3d6000fd5b505050506040513d601f19601f8201168201806040525081019061190b9190611f64565b9050604051806101a001604052808a60ff168152602001336001600160a01b03168152602001896001600160a01b031681526020018881526020018781526020018681526020014281526020018581526020016000815260200160006001600160a01b03168152602001600015158152602001836001600160a01b03168152602001828152506003600085815260200190815260200160002060008201518160000160006101000a81548160ff021916908360ff16021790555060208201518160000160016101000a8154816001600160a01b0302191690836001600160a01b0316021790555060408201518160010160006101000a8154816001600160a01b0302191690836001600160a01b03160217905550606082015181600201556080820151816003015560a0820151816004015560c0820151816005015560e0820151816006015561010082015181600701556101208201518160080160006101000a8154816001600160a01b0302191690836001600160a01b031602179055506101408201518160080160146101000a81548160ff0219169083151502179055506101608201518160090160006101000a8154816001600160a01b0302191690836001600160a01b0316021790555061018082015181600a015590505060016000896001600160a01b03166001600160a01b03168152602001908152602001600020600088815260200190815260200160002083908060018154018082558091505060019003906000526020600020016000909190919091505560026000336001600160a01b03166001600160a01b03168152602001908152602001600020839080600181540180825580915050600190039060005260206000200160009091909190915055876001600160a01b03166342842e0e33308a6040518463ffffffff1660e01b8152600401611bc093929190611fbd565b600060405180830381600087803b158015611bda57600080fd5b505af1158015611bee573d6000803e3d6000fd5b505060405163c87b56dd60e01b8152600481018a9052600092506001600160a01b038b16915063c87b56dd9060240160006040518083038186803b158015611c3557600080fd5b505afa158015611c49573d6000803e3d6000fd5b505050506040513d6000823e601f3d908101601f19168201604052611c719190810190611ed3565b905083896001600160a01b03167ff60369678be44371769dc62fca88a04a7e6f03e1d21772a15cc00ace084a1f1f8a33858a8d604051611cb595949392919061212e565b60405180910390a350505050505050505050565b600060208284031215611cdb57600080fd5b8135611ce6816122c2565b9392505050565b600060208284031215611cff57600080fd5b8151611ce6816122c2565b60008060008060808587031215611d2057600080fd5b8435611d2b816122c2565b93506020850135611d3b816122c2565b92506040850135915060608501356001600160401b03811115611d5d57600080fd5b8501601f81018713611d6e57600080fd5b8035611d81611d7c826121d3565b6121a3565b818152886020838501011115611d9657600080fd5b8160208401602083013760006020838301015280935050505092959194509250565b60008060408385031215611dcb57600080fd5b8235611dd6816122c2565b946020939093013593505050565b600060208284031215611df657600080fd5b81518015158114611ce657600080fd5b600060208284031215611e1857600080fd5b5035919050565b600080600060608486031215611e3457600080fd5b8335611e3f816122c2565b95602085013595506040909401359392505050565b60008060008060808587031215611e6a57600080fd5b8435611e75816122c2565b966020860135965060408601359560600135945092505050565b600080600080600060a08688031215611ea757600080fd5b8535611eb2816122c2565b97602087013597506040870135966060810135965060800135945092505050565b600060208284031215611ee557600080fd5b81516001600160401b03811115611efb57600080fd5b8201601f81018413611f0c57600080fd5b8051611f1a611d7c826121d3565b818152856020838501011115611f2f57600080fd5b61060d82602083016020860161226a565b600060208284031215611f5257600080fd5b813561ffff81168114611ce657600080fd5b600060208284031215611f7657600080fd5b5051919050565b60008151808452611f9581602086016020860161226a565b601f01601f19169290920160200192915050565b6001600160a01b0391909116815260200190565b6001600160a01b039384168152919092166020820152604081019190915260600190565b6001600160a01b03929092168252602082015260400190565b6020808252600d908201526c1b1bddc81c1c9a58d948189a59609a1b604082015260600190565b6020808252818101527f4f776e61626c653a2063616c6c6572206973206e6f7420746865206f776e6572604082015260600190565b6020808252600e908201526d21b0b731b2b632b21037b93232b960911b604082015260600190565b6020808252600d908201526c1058d8d95cdcc819195b9a5959609a1b604082015260600190565b6020808252600c908201526b105b1c9958591e481cdbdb1960a21b604082015260600190565b8581526001600160a01b038581166020830152841660408201526060810183905260a06080820181905260009061066d90830184611f7d565b8381526001600160a01b038316602082015260606040820181905260009061060d90830184611f7d565b8581526001600160a01b038516602082015260a06040820181905260009061215890830186611f7d565b606083019490945250608001529392505050565b84815260018060a01b03841660208201528260408201526080606082015260006121996080830184611f7d565b9695505050505050565b604051601f8201601f191681016001600160401b03811182821017156121cb576121cb6122ac565b604052919050565b60006001600160401b038211156121ec576121ec6122ac565b50601f01601f191660200190565b6000821982111561220d5761220d612296565b500190565b60008261222f57634e487b7160e01b600052601260045260246000fd5b500490565b600081600019048311821515161561224e5761224e612296565b500290565b60008282101561226557612265612296565b500390565b60005b8381101561228557818101518382015260200161226d565b8381111561091b5750506000910152565b634e487b7160e01b600052601160045260246000fd5b634e487b7160e01b600052604160045260246000fd5b6001600160a01b03811681146122d757600080fd5b5056fe8be0079c531659141344cd1fd0a4f28419497f9722a3daafe3b4186f6b6457e00be430b471a0455602bfefbcbe1a79021426e95b4225a646a9113b929e710470a26469706673582212209dca74599150d7140e68de168e309a11db4f21f448999509d5f4039fa56bbfbf64736f6c63430008070033",
  "linkReferences": {},
  "deployedLinkReferences": {}
}